S01000005841726475696E6F2E73726563EA
S11300000C9434000C9451000C9451000C94510045
S11300100C9451000C9451000C9451000C94510018
S11300200C9451000C9451000C9451000C94510008
S11300300C9451000C9451000C9451000C945100F8
S11300400C9451000C9451000C9451000C945100E8
S11300500C9451000C9451000C9451000C945100D8
S11300600C9451000C94510011241FBECFEFD8E022
S1130070DEBFCDBF11E0A0E0B1E0ECEDF9E002C0DD
S113008005900D92AA34B107D9F711E0AAE4B1E0C2
S113009001C01D92AC34B107E1F70E9453000C94E7
S11300A0EC040C940000CF93DF93CDB7DEB70E942D
S11300B060000E94820080E090E0DF91CF9108957B
S11300C0CF93DF9300D0CDB7DEB784E091E09A837D
S11300D0898380E091E00E949F0260E875E280E0FD
S11300E090E00E944C0381E00E94B80381E00E94EA
S11300F0D80389819A810E9412040F900F90DF9196
S1130100CF910895CF93DF93CDB7DEB7FFCFCF93D1
S1130110DF9300D00F92CDB7DEB78B831A8219829A
S11301208B81882F90E08130910551F082309105C8
S113013061F0009779F483E290E09A8389830AC09E
S113014086E290E09A83898305C089E290E09A83ED
S11301508983000089819A810F900F900F90DF911D
S1130160CF910895CF93DF930F92CDB7DEB78983F4
S11301708981882351F485E590E025E530E0F90193
S113018020812061FC01208309C085E590E025E5FC
S113019030E0F90120812F7EFC0120830F90DF9154
S11301A0CF910895CF93DF9300D000D000D0CDB786
S11301B0DEB78D836E831A8219828D81882F90E039
S11301C0880F991F865F9E4FFC0180818B838D81F0
S11301D0882F90E0880F991F855F9E4FFC018081D6
S11301E08C838B810E9487009A83898389819A8179
S11301F0009761F189819A81FC018181482F8C816A
S1130200282F30E081E090E002C0880F991F2A95E2
S1130210E2F780958423282F89819A81FC01218328
S113022089819A81FC018181482F8E81882F90E0F9
S11302302C81222F30E002C0880F991F2A95E2F703
S1130240842B282F89819A81FC01218326960FB65D
S1130250F894DEBF0FBECDBFDF91CF910895CF9349
S1130260DF9300D000D000D0CDB7DEB78D836E838E
S11302701A8219828D81882F90E0880F991F865FDA
S11302809E4FFC0180818B838D81882F90E0880FA5
S1130290991F855F9E4FFC0180818C838B810E9416
S11302A087009A83898389819A81009779F18E8165
S11302B08130B1F489819A81FC018281482F8C813B
S11302C0282F30E081E090E002C0880F991F2A9522
S11302D0E2F7842B282F89819A81FC01228316C09E
S11302E089819A81FC018281482F8C81282F30E0FA
S11302F081E090E002C0880F991F2A95E2F780956B
S11303008423282F89819A81FC01228326960FB6A3
S1130310F894DEBF0FBECDBFDF91CF910895CF9388
S1130320DF9300D0CDB7DEB79A8389838CE490E065
S11303302CE430E0F90120812F7DFC0120838CE442
S113034090E02CE430E0F9012081422F29813A81A8
S1130350F9012081222F30E0220F331F229532959C
S1130360307F3227207F3227242BFC0120838CE42A
S113037090E02CE430E0F90120812F7EFC01208301
S11303808CE490E02CE430E0F9012081422F2981B3
S11303903A81F9012181222F30E022953295307F74
S11303A03227207F3227242BFC0120838CE490E029
S11303B02CE430E0F9012081277FFC0120838CE4C8
S11303C090E02CE430E0F9012081422F29813A8128
S11303D0F9012281222F30E0220F331F220F331F15
S11303E0220F331F242BFC0120838CE490E02CE4A7
S11303F030E0F90120812B7FFC0120838CE490E024
S11304002CE430E0F9012081422F29813A81F9015D
S11304102381222F30E0220F331F220F331F242B7E
S1130420FC0120838CE490E02CE430E0F90120818D
S11304302C7FFC0120838DE490E02DE430E0F90171
S113044020812E7FFC0120834CE450E08CE490E07A
S1130450FC01608189819A81FC018481282F30E02C
S1130460C901880F991F820F931F8D5C9E4FFC0159
S1130470708189819A81FC018481282F30E0C9012F
S1130480880F991F820F931F8C5C9E4FFC01808103
S1130490872B862BFA0180834DE450E08DE490E0B5
S11304A0FC01608189819A81FC018481282F30E0DC
S11304B0C901880F991F820F931F8E5C9E4FFC0108
S11304C08081862BFA0180830F900F90DF91CF916A
S11304D00895CF93DF930F92CDB7DEB789838981D7
S11304E0813051F48CE490E02CE430E0F901208177
S11304F02064FC01208309C08CE490E02CE430E00B
S1130500F90120812F7BFC0120830F90DF91CF9193
S11305100895CF93DF930F92CDB7DEB789838EE42E
S113052090E02981FC01208300008DE490E0FC012F
S113053080818823D4F70F90DF91CF910895CF93D2
S1130540DF9300D000D0CDB7DEB79C838B838B8143
S11305509C81FC018381847089838B819C81FC0153
S1130560838183708A8382EC90E022EC30E0F9018D
S113057020812F73FC01208382EC90E022EC30E098
S1130580F9012081422F2B813C81F9012081222F06
S113059030E00024369527950794369527950794DF
S11305A0322F202D242BFC01208382EC90E022ECBE
S11305B030E0F90120812F7CFC01208382EC90E063
S11305C022EC30E0F9012081422F2B813C81F9019A
S11305D02181222F30E022953295307F3227207FEF
S11305E03227242BFC01208382EC90E022EC30E0C3
S11305F0F9012081277FFC01208382EC90E022EC2A
S113060030E0F9012081422F2B813C81F9012281C4
S1130610222F30E0220F331F220F331F220F331FEC
S1130620242BFC01208381EC90E021EC30E0F901E3
S113063020812B7FFC01208382EC90E022EC30E0CF
S1130640F9012081297FFC01208381EC90E021ECD9
S113065030E0F9012081422F2981222F30E0220F3E
S1130660331F220F331F242BFC01208382EC90E0E4
S113067022EC30E0F9012081422F2A81222F30E040
S1130680220F331F242BFC0120830F900F900F9017
S11306900F90DF91CF910895CF93DF93CDB7DEB75D
S11306A027970FB6F894DEBF0FBECDBF6C837D8352
S11306B08E839F8380EC90E0FC01808182708B8329
S11306C08B81882321F58C819D81AE81BF81880F28
S11306D0991FAA1FBB1F880F991FAA1FBB1F880F32
S11306E0991FAA1FBB1F880F991FAA1FBB1F9C011C
S11306F0AD0180E094E2A4EFB0E0BC01CD010E9422
S1130700CA04DA01C90101979A8389831FC08C81C5
S11307109D81AE81BF81880F991FAA1FBB1F880FBF
S1130720991FAA1FBB1F880F991FAA1FBB1F9C01DB
S1130730AD0180E094E2A4EFB0E0BC01CD010E94E1
S1130740CA04DA01C90101979A83898384EC90E091
S11307502981FC01208385EC90E0FC01108227961E
S11307600FB6F894DEBF0FBECDBFDF91CF910895D1
S1130770CF93DF930F92CDB7DEB789838981813020
S113078051F481EC90E021EC30E0F9012081286003
S1130790FC01208309C081EC90E021EC30E0F901F8
S11307A02081277FFC0120830F90DF91CF91089552
S11307B0CF93DF930F92CDB7DEB7898389818130E0
S11307C051F481EC90E021EC30E0F90120812061CA
S11307D0FC01208309C081EC90E021EC30E0F901B8
S11307E020812F7EFC0120830F90DF91CF9108950B
S11307F0CF93DF930F92CDB7DEB78983000080ECEF
S113080090E0FC018081882F90E0807290700097C6
S1130810B1F386EC90E02981FC0120830F90DF91F5
S1130820CF910895CF93DF9300D0CDB7DEB79A83ED
S113083089830BC089819A81FC0180810E94F8031D
S113084089819A8101969A83898389819A81FC019D
S11308508081882379F70F900F90DF91CF910895CD
S1130860CF93DF93CDB7DEB7000080EC90E0FC01BE
S113087080818823D4F786EC90E0FC018081DF91AD
S1130880CF910895CF93DF9300D0CDB7DEB719820F
S11308900E9430048A8320914A0130914B0189815E
S11308A0882F90E0820F931F2A81FC012083898185
S11308B08F5F89838A818A3059F780914A019091A8
S11308C04B010F900F90DF91CF910895CF93DF9359
S11308D000D0CDB7DEB78A838AE060E00E942F01A2
S11308E088E089831AC08DE060E00E942F018A812C
S11308F088232CF48BE061E00E942F0104C08BE07C
S113090060E00E942F018A81880F8A838DE061E074
S11309100E942F018981815089838981882319F755
S11309200F900F90DF91CF910895CF93DF9300D074
S1130930CDB7DEB789836A838AE060E00E942F0125
S113094089810E9466048A810E9466048AE061E0CB
S11309500E942F010F900F90DF91CF910895CF93B4
S1130960DF93CDB7DEB789E060E00E9495048AE0AA
S113097063E00E9495048BE067E00E9495048CE09C
S113098061E00E9495048FE060E00E949504DF918D
S1130990CF910895A1E21A2EAA1BBB1BFD010DC025
S11309A0AA1FBB1FEE1FFF1FA217B307E407F5071B
S11309B020F0A21BB30BE40BF50B661F771F881FF7
S11309C0991F1A9469F760957095809590959B018D
S10F09D0AC01BD01CF010895F894FFCFE5
S11309DC00000003537461727400020002010202ED
S11309EC02030204020502060207000000010002D1
S11309FC00030004000501000101010201030104CC
S1130A0C01050000000000010001000001010100CB
S10D0A1C00010001010100010101C5
S9030000FC
