:100000000C9434000C9451000C9451000C94510049
:100010000C9451000C9451000C9451000C9451001C
:100020000C9451000C9451000C9451000C9451000C
:100030000C9451000C9451000C9451000C945100FC
:100040000C9451000C9451000C94CA060C9451006D
:100050000C9451000C9451000C9451000C945100DC
:100060000C9451000C94510011241FBECFEFD8E026
:10007000DEBFCDBF15E0A0E0B1E0EEEAF8E502C0DA
:1000800005900D92A234B107D9F716E0A2E4B5E0CD
:1000900001C01D92A538B107E1F70E9453000C94EE
:1000A000552C0C940000DF93CF93CDB7DEB70E94A0
:1000B000260680E090E0CF91DF910895DF93CF9303
:1000C000CDB7DEB7CF91DF910895DF93CF9300D006
:1000D0000F92CDB7DEB78B831A8219828B81882F5E
:1000E00090E08130910551F08230910561F00097E8
:1000F00079F483E290E09A8389830AC086E290E0F3
:100100009A83898305C089E290E09A8389830000FD
:1001100089819A810F900F900F90CF91DF91089570
:10012000DF93CF930F92CDB7DEB789838981882380
:1001300051F485E590E025E530E0F901208120616A
:10014000FC01208309C085E590E025E530E0F90158
:1001500020812F7EFC0120830F90CF91DF910895A5
:10016000DF93CF9300D000D000D0CDB7DEB78D8322
:100170006E831A8219828D81882F90E0880F991FD3
:1001800080509F4FFC0180818B838D81882F90E070
:10019000880F991F8F5F9E4FFC0180818C838B811C
:1001A0000E9465009A83898389819A81009761F111
:1001B00089819A81FC018181482F8C81282F30E030
:1001C00081E090E002C0880F991F2A95E2F78095A0
:1001D0008423282F89819A81FC01218389819A8136
:1001E000FC018181482F8E81882F90E02C81222F65
:1001F00030E002C0880F991F2A95E2F7842B282F40
:1002000089819A81FC01218326960FB6F894DEBF7E
:100210000FBECDBFCF91DF910895DF93CF9300D074
:1002200000D000D0CDB7DEB78D836E831A821982DD
:100230008D81882F90E0880F991F80509F4FFC017F
:1002400080818B838D81882F90E0880F991F8F5F2D
:100250009E4FFC0180818C838B810E9465009A8374
:10026000898389819A81009779F18E818130B1F4F7
:1002700089819A81FC018281482F8C81282F30E06E
:1002800081E090E002C0880F991F2A95E2F7842B45
:10029000282F89819A81FC01228316C089819A8145
:1002A000FC018281482F8C81282F30E081E090E092
:1002B00002C0880F991F2A95E2F780958423282F82
:1002C00089819A81FC01228326960FB6F894DEBFBD
:1002D0000FBECDBFCF91DF910895DF93CF9300D0B4
:1002E00000D0CDB7DEB79C838B838B819C81FC01D2
:1002F0008381847089838B819C81FC0183818370DD
:100300008A8382EC90E022EC30E0F90120812F73A7
:10031000FC01208382EC90E022EC30E0F9012081A6
:10032000422F2B813C81F9012081222F30E00024D3
:10033000369527950794369527950794322F202DCB
:10034000242BFC01208382EC90E022EC30E0F901C8
:1003500020812F7CFC01208382EC90E022EC30E0B5
:10036000F9012081422F2B813C81F9012181222F2B
:1003700030E022953295307F3227207F3227242BA0
:10038000FC01208382EC90E022EC30E0F901208136
:10039000277FFC01208382EC90E022EC30E0F90121
:1003A0002081422F2B813C81F9012281222F30E0D4
:1003B000220F331F220F331F220F331F242BFC0168
:1003C000208381EC90E021EC30E0F90120812B7F4B
:1003D000FC01208382EC90E022EC30E0F9012081E6
:1003E000297FFC01208381EC90E021EC30E0F901D1
:1003F0002081422F2981222F30E0220F331F220F2C
:10040000331F242BFC01208382EC90E022EC30E0AF
:10041000F9012081422F2A81222F30E0220F331F41
:10042000242BFC01208381EC90E021EC30E0F901E9
:1004300020812068FC0120830F900F900F900F9077
:10044000CF91DF910895DF93CF93CDB7DEB7279794
:100450000FB6F894DEBF0FBECDBF6C837D838E8355
:100460009F8380EC90E0FC01808182708B838B8184
:10047000882321F58C819D81AE81BF81880F991FD2
:10048000AA1FBB1F880F991FAA1FBB1F880F991F88
:10049000AA1FBB1F880F991FAA1FBB1F9C01AD017C
:1004A00080E094E2A4EFB0E0BC01CD010E94D72827
:1004B000DA01C90101979A8389831FC08C819D81CC
:1004C000AE81BF81880F991FAA1FBB1F880F991F7C
:1004D000AA1FBB1F880F991FAA1FBB1F9C01AD013C
:1004E00080E094E2A4EFB0E0BC01CD010E94D728E7
:1004F000DA01C90101979A83898384EC90E029810C
:10050000FC01208385EC90E0FC01108227960FB659
:10051000F894DEBF0FBECDBFCF91DF910895DF937A
:10052000CF930F92CDB7DEB789838981813051F4A3
:1005300081EC90E021EC30E0F90120812860FC01A1
:10054000208309C081EC90E021EC30E0F9012081AA
:10055000277FFC0120830F90CF91DF910895DF93D7
:10056000CF930F92CDB7DEB789838981813051F463
:1005700081EC90E021EC30E0F90120812061FC0168
:10058000208309C081EC90E021EC30E0F90120816A
:100590002F7EFC0120830F90CF91DF910895DF9390
:1005A000CF9300D00F92CDB7DEB789837B836A8368
:1005B00089818A3031F48DE060E070E00E94CF02E2
:1005C00001C0000080EC90E0FC018081882F90E069
:1005D000807290700097B1F386EC90E02981FC0165
:1005E000208380E00F900F900F90CF91DF910895BE
:1005F000DF93CF9300D0CDB7DEB79A8389830DC048
:1006000089819A81FC01808160E070E00E94CF02C4
:1006100089819A8101969A83898389819A81FC01D3
:100620008081882369F70F900F90CF91DF91089513
:10063000DF93CF9300D0CDB7DEB79A8389830000D4
:1006400080EC90E0FC0180818823D4F786EC90E078
:10065000FC0180810F900F90CF91DF910895DF937F
:10066000CF93CDB7DEB729970FB6F894DEBF0FBE94
:10067000CDBF9E838D8378876F8349878FEF9FEFF0
:100680009C838B831A8219821BC089819A81880F6F
:10069000991F2F813885820F931FFC0120813181A2
:1006A0008D819E81B9010E946929009721F4898179
:1006B0009A819C838B8389819A8101969A8389830D
:1006C0008985282F30E089819A8182179307ECF27F
:1006D0008B8129960FB6F894DEBF0FBECDBFCF91A8
:1006E000DF9108958F929F92AF92BF92CF92DF9247
:1006F000EF92FF920F931F93DF93CF9300D0CDB76C
:10070000DEB79A83898389819A81FC018281882F4F
:1007100090E0A0E0B0E029813A81F9012181222F07
:1007200030E040E050E069817A81FB016081E62E93
:10073000FF2400E010E0BC01CD01CC24DD240F2E0D
:10074000F3E38F2EF0E09F2EF0E0AF2EF0E0BF2E0F
:10075000F02D0E94D8100F900F90CF91DF911F9134
:100760000F91FF90EF90DF90CF90BF90AF909F9050
:100770008F9008958F929F92AF92BF92CF92DF9207
:10078000EF92FF920F931F93DF93CF9300D0CDB7DB
:10079000DEB79A83898389819A81FC01808591855E
:1007A000A285B38529813A81F90124813581468169
:1007B000578169817A81FB01E080F1800281138198
:1007C000BC01CD01CC24DD240F2EF7E38F2EF0E009
:1007D0009F2EF0E0AF2EF0E0BF2EF02D0E94D8103B
:1007E0000F900F90CF91DF911F910F91FF90EF909D
:1007F000DF90CF90BF90AF909F908F900895AF9271
:10080000CF92DF92EF92FF920F931F93DF93CF93DC
:1008100000D0CDB7DEB79A83898389819A81FC01A4
:100820008181882F90E0A0E0B0E029813A81F90130
:100830002081222F30E040E050E0BC01CD0100E0FB
:1008400010E00F2EFBE3CF2EF0E0DF2EF0E0EF2ED6
:10085000F0E0FF2EF02D0F2EF2E1AF2EF02D0E94D2
:1008600081110F900F90CF91DF911F910F91FF9009
:10087000EF90DF90CF90AF900895AF92CF92DF923C
:10088000EF92FF920F931F93DF93CF9300D0CDB7DA
:10089000DEB79A83898389819A81FC018281938161
:1008A000AA2797FDA095BA2F29813A81F9012081C5
:1008B0003181442737FD4095542FBC01CD0100E024
:1008C00010E00F2EFFE3CF2EF0E0DF2EF0E0EF2E52
:1008D000F0E0FF2EF02D0F2EF2E4AF2EF02D0E944F
:1008E00081110F900F90CF91DF911F910F91FF9089
:1008F000EF90DF90CF90AF900895AF92CF92DF92BC
:10090000EF92FF920F931F93DF93CF9300D0CDB759
:10091000DEB79A83898389819A81FC0184819581DC
:10092000A681B78129813A81F901208131814281F3
:100930005381BC01CD0100E010E00F2EF3E4CF2E77
:10094000F0E0DF2EF0E0EF2EF0E0FF2EF02D0F2E86
:10095000F2E1AF2EF02D0E9481110F900F90CF91F8
:10096000DF911F910F91FF90EF90DF90CF90AF90AC
:100970000895DF93CF9300D00F92CDB7DEB71982E1
:1009800085E08A8388E991E00E94F80203C00000B4
:1009900001C000000E9488068B838B818037D9F4C8
:1009A00089818823A1F38981882F90E08230910585
:1009B00009F455C0833091052CF48130910509F478
:1009C00042C074C08330910509F454C0843091054D
:1009D00009F45EC06BC08B818636D9F600D000D09A
:1009E0008DB79EB701962CE931E0FC01318320835D
:1009F0002FEA31E0FC01338322830E94AE290F905D
:100A00000F900F900F908FEA91E02EE831E0B9013E
:100A10004A810E942F0389838981282F30E000D0EA
:100A200000D08DB79EB7019645EA51E0FC01518395
:100A30004083FC01338322830E94AE290F900F90E4
:100A40000F900F90A7CF40914B0580914D05882FB7
:100A500090E09C01842FB9010E945C0527C0809121
:100A60004B0520914D0590914F05622F492F0E9413
:100A700083051CC080914B0530914D0520914F0599
:100A800090915105632F422F292F0E94A6050EC079
:100A900080914B0530914D0520914F059091510566
:100AA000632F422F292F0E94DF0500000F900F9027
:100AB0000F90CF91DF910895DF93CF93CDB7DEB73D
:100AC00029970FB6F894DEBF0FBECDBF8F8379870D
:100AD00068878F810E9465009A83898389819A81C2
:100AE0009C838B83888599859E838D83CE01039615
:100AF0000E943D0429960FB6F894DEBF0FBECDBF0D
:100B0000CF91DF910895DF93CF9300D000D000D034
:100B1000CDB7DEB78C836D834E838C810E949000AD
:100B200085E590E0FC01808189838D818A838E81B7
:100B30008B83CE0101960E94720326960FB6F8941D
:100B4000DEBF0FBECDBFCF91DF910895DF93CF936E
:100B5000CDB7DEB72A970FB6F894DEBF0FBECDBF74
:100B60008F83688749872A871A8219828F81882F05
:100B700090E0880F991F80509F4FFC0180818B83EC
:100B80008B810E9465009A8389838F8168850E948A
:100B9000B00089819A81FC0181818C8389858D8354
:100BA0008A858E83CE0104960E9472032A960FB620
:100BB000F894DEBF0FBECDBFCF91DF910895DF93D4
:100BC000CF93CDB7DEB72A970FB6F894DEBF0FBE2E
:100BD000CDBF8F83688749872A871A8219828F81C0
:100BE000882F90E0880F991F80509F4FFC018081D3
:100BF0008B838B810E9465009A8389838F816885AE
:100C00000E940D0189819A81FC0182818C838985F2
:100C10008D838A858E83CE0104960E9472032A9664
:100C20000FB6F894DEBF0FBECDBFCF91DF91089510
:100C3000DF93CF93CDB7DEB7CF91DF910895DF93E8
:100C4000CF93CDB7DEB7CF91DF910895DF93CF93E8
:100C5000CDB7DEB70E9433060E945A060E947B067B
:100C6000CF91DF910895DF93CF93CDB7DEB7F8949E
:100C70008EEA92E00E946D0160E875E280E090E00B
:100C80000E94230281E00E948F0281E00E94AF0255
:100C900082EB92E09093820680938106789480ECB8
:100CA00092E00E94F8028EEC92E00E94C025CF9163
:100CB000DF910895DF93CF930F92CDB7DEB701C0D8
:100CC00000000E94880689838981813779F08981B3
:100CD0008337B1F71092420589EB94E02EEE32E0B3
:100CE000B90142E750E00E946525EBCF00000F906C
:100CF000CF91DF910895DF93CF93CDB7DEB70E94F8
:100D00000E268FEF92E00E94F802CF91DF910895B6
:100D1000DF93CF9300D00F92CDB7DEB7809143051C
:100D2000882389F1109243051A82809149058983AD
:100D300023C08A81882F90E0885B9A4FFC018081D4
:100D40008B838B8160E070E00E94CF0289818636C0
:100D500081F48A81833068F08B818E3251F08FEA82
:100D600091E09E012D5F3F4FB90141E050E00E94AC
:100D700072298A818F5F8A83809142059A819817B0
:100D8000C0F21092420589810F900F900F90CF9181
:100D9000DF9108951F920F920FB60F9211242F9397
:100DA0008F939F93EF93FF93DF93CF930F92CDB7E2
:100DB000DEB7000080EC90E0FC0180818823D4F74E
:100DC00086EC90E0FC018081898389818E3219F460
:100DD00081E08093430580914205882F90E0885BF5
:100DE0009A4F2981FC012083809142058F5F809377
:100DF00042050F90CF91DF91FF91EF919F918F91DD
:100E00002F910F900FBE0F901F901895DF93CF93E7
:100E100000D0CDB7DEB79A83898389819A81FC019E
:100E200080818F37A0F489819A81FC018081803292
:100E300070F089819A81FC018081882F90E0209157
:100E4000810630918206B9010E94822951C08981B0
:100E50009A81FC0180818D3099F420918106309136
:100E600082068CE590E0B9010E94822920918106DA
:100E70003091820682E790E0B9010E94822938C051
:100E800089819A81FC0180818A3099F420918106C0
:100E9000309182068CE590E0B9010E948229209170
:100EA0008106309182068EE690E0B9010E94822987
:100EB0001FC020918106309182068CE590E0B90137
:100EC0000E948229209181063091820688E790E075
:100ED000B9010E94822989819A81FC018081882F31
:100EE00090E0A0E0B0E0BC01CD0142E00E946A09C0
:100EF0000F900F90CF91DF910895DF93CF9300D0A3
:100F000000D0CDB7DEB79C838B838B819C819A8385
:100F1000898389819A81009781F009C089819A81AA
:100F20000E94060789819A8101969A838983898123
:100F30009A81FC018081882389F70F900F900F9090
:100F40000F90CF91DF910895DF93CF93CDB7DEB7A8
:100F500028970FB6F894DEBF0FBECDBF9C838B835E
:100F60004D835E836F8378878B819C819A8389838D
:100F700089819A81009709F48EC070C089819A8115
:100F8000FC0180818F37A0F489819A81FC018081E6
:100F9000803270F089819A81FC018081882F90E0F5
:100FA0002091810630918206B9010E94822951C0A8
:100FB00089819A81FC0180818D3099F4209181068C
:100FC000309182068CE590E0B9010E94822920913F
:100FD00081063091820682E790E0B9010E94822961
:100FE00038C089819A81FC0180818A3099F42091EE
:100FF0008106309182068CE590E0B9010E94822939
:1010000020918106309182068EE690E0B9010E941F
:1010100082291FC020918106309182068CE590E0E4
:10102000B9010E948229209181063091820688E7C9
:1010300090E0B9010E94822989819A81FC01808116
:10104000882F90E0A0E0B0E0BC01CD0142E00E941A
:101050006A0989819A8101969A83898389819A8113
:10106000FC0180818823B9F029813A818B819C81A0
:10107000A901481B590BCA019C01442737FD409523
:10108000542F8D819E81AF81B885281739074A0773
:101090005B0708F473CF28960FB6F894DEBF0FBE37
:1010A000CDBFCF91DF910895DF93CF9300D000D0D3
:1010B0000F92CDB7DEB769837A838B839C834D8390
:1010C0008D81882F90E080719070009749F0898120
:1010D0009A81AB81BC81BC01CD010E94A6082EC0C3
:1010E0008D81882F90E080729070009749F08981FF
:1010F0009A81AB81BC81BC01CD010E94EB081EC06E
:10110000209181063091820680E390E0B9010E942F
:101110008229209181063091820688E790E0B9010A
:101120000E94822989819A81AB81BC812D812F7097
:10113000220FBC01CD01422F0E946A090F900F902F
:101140000F900F900F90CF91DF910895DF93CF9381
:10115000CDB7DEB728970FB6F894DEBF0FBECDBF70
:101160006D837E838F8398878D819E81AF81B885C3
:1011700089839A83AB83BC838D819E81AF81B8853F
:10118000BB23C4F420918106309182068DE290E069
:10119000B9010E94822989819A81AB81BC81B09575
:1011A000A095909581959F4FAF4FBF4F89839A83AC
:1011B000AB83BC8389819A81AB81BC81BC01CD01A9
:1011C0000E94EB0828960FB6F894DEBF0FBECDBF85
:1011D000CF91DF910895DF93CF93CDB7DEB72897F6
:1011E0000FB6F894DEBF0FBECDBF6D837E838F83B5
:1011F000988781E090E0A0E0B0E089839A83AB8398
:10120000BC8312C089819A81AB81BC812AE030E025
:1012100040E050E0BC01CD010E94A528DC01CB01DB
:1012200089839A83AB83BC838D819E81AF81B8858E
:1012300029813A814B815C81BC01CD010E94D72874
:10124000DA01C9018A309105A105B105D8F68D8171
:101250009E81AF81B88529813A814B815C81BC0137
:10126000CD010E94D728DA01C9012AE030E040E030
:1012700050E0BC01CD010E94D728DC01CB01805D8C
:10128000882F90E02091810630918206B9010E945A
:10129000822989819A81AB81BC812AE030E040E0DB
:1012A00050E0BC01CD010E94D72829833A834B83AB
:1012B0005C8389819A81AB81BC810097A105B105CE
:1012C00031F628960FB6F894DEBF0FBECDBFCF9192
:1012D000DF910895DF93CF93CDB7DEB728970FB690
:1012E000F894DEBF0FBECDBF6C837D838E839F835A
:1012F00048878885898389818930D0F188E089830E
:1013000037C08981815089838981882F90E09C0131
:10131000220F331F220F331F8C819D81AE81BF812D
:10132000022E04C0B695A795979587950A94D2F793
:101330008F7090709B838A838A819B818A3091050C
:1013400064F48A81805D882F90E02091810630913D
:101350008206B9010E9482290BC08A81895C882F8C
:1013600090E02091810630918206B9010E94822985
:101370008981882331F628960FB6F894DEBF0FBE18
:10138000CDBFCF91DF910895DF93CF93CDB7DEB777
:1013900060970FB6F894DEBF0FBECDBF69877A871E
:1013A0008B879C872D873E874F87588B80E090E8FE
:1013B000A0E0B0E089839A83AB83BC831D821E8248
:1013C0001F82188654C029813A814B815C818985AE
:1013D0009A85AB85BC8582239323A423B5230097EC
:1013E000A105B10521F129813A814B815C818D856F
:1013F0009E85AF85B88982239323A423B5230097C4
:10140000A105B10551F0209181063091820681E35A
:1014100090E0B9010E94822913C020918106309189
:10142000820680E390E0B9010E94822909C02091E0
:1014300081063091820688E590E0B9010E948229F8
:1014400089819A81AB81BC81B695A795979587953F
:1014500089839A83AB83BC838D819E81AF81B8855C
:101460000196A11DB11D8D839E83AF83B8878D81A9
:101470009E81AF81B88580319105A105B1050CF43D
:10148000A2CF60960FB6F894DEBF0FBECDBFCF914E
:10149000DF910895DF92EF92FF920F931F93DF93F6
:1014A000CF93CDB7DEB7E2970FB6F894DEBF0FBE8D
:1014B000CDBF6FA778AB89AB9AAB8FA598A9A9A927
:1014C000BAA989839A83AB83BC8311E069817A814D
:1014D0008B819C8120E030E0A9010E94EF268823C7
:1014E0000CF010E0112321F569817A818B819C81B8
:1014F00020E030E0A9010E94EF26882359F560E042
:1015000070E080E89FE329813A814B815C810E94F1
:10151000F326DC01CB0111E0BC01CD0120E030E07D
:10152000A9010E94EF2688230CF010E0112391F00E
:1015300020918106309182068DE290E0B9010E94EF
:10154000822989819A81AB81BC81B05889839A8331
:10155000AB83BC8369817A818B819C8120E030E000
:10156000A9010E94EF26882329F481E295E00E94D8
:101570007D07D4C369817A818B819C8129813A81DD
:101580004B815C810E94EF26882329F083E295E05D
:101590000E947D07C3C369817A818B819C812981E7
:1015A0003A814B815C810E948A26DC01CB017C015F
:1015B0008D0169817A818B819C8129813A814B815E
:1015C0005C810E948A26DC01CB019C01AD01C8012F
:1015D000B7010E94EF268823B9F011E069817A8172
:1015E0008B819C8129813A814B815C810E94EF260D
:1015F000882309F410E081E08127882329F087E21D
:1016000095E00E947D078AC31D821E821F82188674
:101610001E861D8620E1CE014F96FC01322F1192CD
:101620003A95E9F711E069817A818B819C8120E00C
:1016300030E040E85FE30E94EF2688230CF010E0E2
:10164000112309F492C080E090E0A0E8BFE38B8B07
:101650009C8BAD8BBE8B15C069817A818B819C81FF
:1016600029EF32E045E150E50E944228DC01CB0140
:1016700089839A83AB83BC838D859E850A979E87D9
:101680008D878091380590913905A0913A05B091E8
:101690003B05BC01CD010E948E27DC01CB01BC01C2
:1016A000CD0129EF32E045E150E50E94F326DC014F
:1016B000CB0111E0BC01CD0129813A814B815C81D4
:1016C0000E943E2818160CF010E0112329F615C0D0
:1016D0006B897C898D899E8920E030E040E251E46D
:1016E0000E944228DC01CB018B8B9C8BAD8BBE8B87
:1016F0008D859E8501979E878D8769817A818B81F3
:101700009C812B893C894D895E890E944228DC019D
:10171000CB017C018D0180913C0590913D05A0910C
:101720003E05B0913F05BC01CD010E948E279B0173
:10173000AC01DD24D394C801B7010E94EF268823B1
:101740000CF0DD24DD2021F669817A818B819C817A
:101750002B893C894D895E890E944228DC01CB019E
:1017600089839A83AB83BC8320C180913805909193
:101770003905A0913A05B0913B05BC01CD010E940D
:101780008E27DC01CB0111E0BC01CD0129813A811A
:101790004B815C810E94EF2688230CF010E011231E
:1017A00009F492C080E090E0A0E8BFE38F8B988FAF
:1017B000A98FBA8F15C069817A818B819C8129EFAD
:1017C00032E045E150E50E94F326DC01CB0189833C
:1017D0009A83AB83BC838D859E850A969E878D8771
:1017E00080913C0590913D05A0913E05B0913F054B
:1017F000BC01CD010E948E27DC01CB01BC01CD01D3
:1018000029EF32E045E150E50E944228DC01CB019E
:1018100011E0BC01CD0129813A814B815C810E949C
:10182000EF2688230CF010E0112329F615C06F89EC
:10183000788D898D9A8D20E030E040E251E40E945D
:101840004228DC01CB018F8B988FA98FBA8F8D85B1
:101850009E8501969E878D8769817A818B819C8187
:101860002F89388D498D5A8D0E94F326DC01CB01DA
:101870007C018D018091380590913905A0913A0540
:10188000B0913B05BC01CD010E948E279B01AC01AC
:10189000DD24D394C801B7010E943E2818160CF02D
:1018A000DD24DD2021F669817A818B819C812F895D
:1018B000388D498D5A8D0E94F326DC01CB01898336
:1018C0009A83AB83BC8371C080E090E0A0E8BFE363
:1018D0008B8F9C8FAD8FBE8F69817A818B819C812C
:1018E0000E945B27DC01CB018D839E83AF83B88789
:1018F0006D817E818F8198850E948E279B01AC012E
:1019000069817A818B819C810E948A26DC01CB01CE
:1019100089839A83AB83BC8327C08D819E81AF81ED
:10192000B8852AE030E040E050E0BC01CD010E94E3
:10193000A528DC01CB018D839E83AF83B8876B8D97
:101940007C8D8D8D9E8D20E030E040E251E40E9440
:101950004228DC01CB018B8F9C8FAD8FBE8F8D8594
:101960009E8501979E878D8780913C0590913D05CE
:10197000A0913E05B0913F052D813E814F81588554
:10198000281739074A075B0744F269817A818B81FE
:101990009C812B8D3C8D4D8D5E8D0E944228DC01FB
:1019A000CB0189839A83AB83BC8329813A814B81A4
:1019B0005C81CA01B9010E948B26DC01CB01BC010C
:1019C000CD010E945B27DC01CB010196A11DB11D59
:1019D00022E030E040E050E0BC01CD010E94F92857
:1019E00029873A874B875C8789859A8581709070B3
:1019F000882339F169857A858B859C850E948E279D
:101A0000DC01CB01BC01CD0129813A814B815C8194
:101A10000E948A26DC01CB01BC01CD0120E030E030
:101A200040E05FE30E94EF26882359F489859A8578
:101A3000AB85BC850197A109B10989879A87AB87D6
:101A4000BC8729853A854B855C858D819E81AF81D8
:101A5000B885820F931FA41FB51F89879A87AB870C
:101A6000BC878091380590913905A0913A05B091D5
:101A70003B0529853A854B855C85281739074A0738
:101A80005B078CF080913C0590913D05A0913E054F
:101A9000B0913F0589879A87AB87BC878D859E85E6
:101AA00001969E878D878D859E85181619069CF058
:101AB00080914005909141052DEF3FEF281B390B98
:101AC0008D859E858217930734F08D859E85909530
:101AD00081959F4F05C080914005909141050197E8
:101AE000988B8F872D853E858F859889820F931FD0
:101AF0009E878D8715C089859A85AB85BC852AE030
:101B000030E040E050E0BC01CD010E94F928298777
:101B10003A874B875C878F8598890197988B8F8749
:101B20008F8598891816190694F489859A85AB854E
:101B3000BC852AE030E040E050E0BC01CD010E94CD
:101B4000F928DC01CB010097A105B105A1F21A8AA1
:101B5000198A2EC089859A85AB85BC852AE030E03C
:101B600040E050E0BC01CD010E94F928DC01CB012E
:101B7000482F405D9E01215E3F4F89899A89820FDF
:101B8000931FFC01408389899A8901969A8B898BDE
:101B900089859A85AB85BC852AE030E040E050E03D
:101BA000BC01CD010E94F92829873A874B875C87C1
:101BB00089859A85AB85BC850097A105B10551F64D
:101BC0008F8598899C012F5F3F4F89899A89821759
:101BD00093070CF4BFCF27C029893A898F8598894C
:101BE0002817390749F420918106309182068EE248
:101BF00090E0B9010E94822989899A8901979A8B7C
:101C0000898B9E01215E3F4F89899A89820F931F9C
:101C1000FC018081882F90E020918106309182061E
:101C2000B9010E94822989899A8918161906A4F295
:101C30008D859E85009709F471C0209181063091B1
:101C4000820685E690E0B9010E9482298D859E85F5
:101C500099238CF420918106309182068DE290E0E8
:101C6000B9010E9482298D859E85909581959F4F0F
:101C70009E878D8709C020918106309182068BE274
:101C800090E0B9010E9482291A8A198A21C08D85A3
:101C90009E852AE030E0B9010E94C428482F405DAB
:101CA0009E01215E3F4F89899A89820F931FFC0113
:101CB000408389899A8901969A8B898B8D859E8527
:101CC0002AE030E0B9010E94C4289B013E872D879D
:101CD0008D859E850097D9F689899A8982309105EC
:101CE000B4F217C089899A8901979A8B898B9E01D2
:101CF000215E3F4F89899A89820F931FFC01808161
:101D0000882F90E02091810630918206B9010E94CF
:101D1000822989899A891816190624F3E2960FB642
:101D2000F894DEBF0FBECDBFCF91DF911F910F9111
:101D3000FF90EF90DF900895DF93CF9300D000D015
:101D400000D0CDB7DEB79A8389834B835C836D83E4
:101D50007E8389819A810E947D072091810630913E
:101D600082068AE390E0B9010E9482298B819C81DE
:101D7000AD81BE81BC01CD010E94A60820918106E3
:101D8000309182068AE390E0B9010E948229809115
:101D90004A0690914B060E947D0720918106309162
:101DA00082068AE390E0B9010E94822926960FB646
:101DB000F894DEBF0FBECDBFCF91DF910895DF93C2
:101DC000CF9300D000D0CDB7DEB769837A838B8301
:101DD0009C83809148069091490629813A814B81E4
:101DE0005C81BA01A9010E949C0E83E193E00E94EC
:101DF0007D0720918106309182068AE390E0B90147
:101E00000E9482290F900F900F900F90CF91DF9139
:101E10000895DF93CF93CDB7DEB78091640690919C
:101E20006506A0916606B09167060097A105B10509
:101E3000A1F080915C0690915D06A0915E06B09144
:101E40005F060196A11DB11D80935C0690935D060F
:101E5000A0935E06B0935F0634C0809160069091B7
:101E60006106A0916206B09163060097A105B105D5
:101E7000A9F480914806909149062091500630912E
:101E800051064091520650915306BA01A9010E9491
:101E90009C0E8EE093E00E947D0713C0809158064F
:101EA00090915906A0915A06B0915B060196A11D2A
:101EB000B11D8093580690935906A0935A06B0938B
:101EC0005B061092600610926106109262061092F4
:101ED00063061092640610926506109266061092D0
:101EE000670620918106309182068AE090E0B90170
:101EF0000E948229CF91DF910895DF93CF9300D084
:101F0000CDB7DEB79A83898389819A81009761F181
:101F100084E293E00E947D0780914C0690914D06EB
:101F20000097F1F08CE095E00E947D0780914C06CF
:101F300090914D060E947D0780914E0690914F062C
:101F4000009751F086E195E00E947D0780914E0652
:101F500090914F060E947D0784E293E00E947D07E6
:101F600089819A810E947D070F900F90CF91DF9118
:101F70000895DF93CF9300D000D0CDB7DEB79A831A
:101F800089837C836B8387E293E00E947D0789814C
:101F90009A810097B9F0209181063091820687E2FC
:101FA00090E0B9010E94822989819A810E947D076F
:101FB000209181063091820687E290E0B9010E946B
:101FC000822904C08FE193E00E947D0782E393E0C1
:101FD0000E947D078B819C810097B9F0209181063A
:101FE0003091820687E290E0B9010E9482298B81BC
:101FF0009C810E947D07209181063091820687E2B4
:1020000090E0B9010E94822904C08FE193E00E9410
:102010007D070F900F900F900F90CF91DF91089553
:10202000DF93CF93CDB7DEB728970FB6F894DEBF16
:102030000FBECDBF9A8389837C836B832D833E83C0
:102040004F83588787E293E00E947D0789819A81B8
:102050000097E9F0209181063091820687E290E0B6
:10206000B9010E94822989819A812D813E814F8107
:102070005885BA01A9010E94A407209181063091D8
:10208000820687E290E0B9010E94822904C08FE1B4
:1020900093E00E947D0782E393E00E947D078B819D
:1020A0009C810097E9F0209181063091820687E2B9
:1020B00090E0B9010E9482298B819C812D813E8113
:1020C0004F815885BA01A9010E94A4072091810679
:1020D0003091820687E290E0B9010E94822904C013
:1020E0008FE193E00E947D0728960FB6F894DEBF3B
:1020F0000FBECDBFCF91DF9108950F931F93DF9354
:10210000CF93CDB7DEB72A970FB6F894DEBF0FBED8
:10211000CDBF9A8389837C836B832D833E834F83DA
:1021200058871A87098729813A818B819C812817D2
:10213000390719F480E090E030C089819A810097D6
:1021400099F48D819E81AF81B885BC01CD010E943B
:10215000DF0E80EE93E00E947D0789859A850E94BC
:102160007D0F81E090E019C08B819C81009799F4EC
:102170008D819E81AF81B885BC01CD010E94DF0EAB
:102180008DEF93E00E947D0789859A850E947D0FDF
:1021900081E090E002C080E090E02A960FB6F894CB
:1021A000DEBF0FBECDBFCF91DF911F910F9108957C
:1021B0008F929F92AF92BF92CF92DF92EF92FF9257
:1021C0000F931F93DF93CF93CDB7DEB762970FB610
:1021D000F894DEBF0FBECDBF69837A838B839C8367
:1021E0002D833E834F835887E986FA860B871C87A9
:1021F000DE86CD868F86988AA98ABA8A8091600603
:1022000090916106A0916206B09163060097A105C6
:10221000B10509F063C08091640690916506A091B4
:102220006606B09167060097A105B10509F056C092
:102230002D813E814F81588589859A85AB85BC85E6
:10224000282739274A275B2789819A81AB81BC815E
:1022500082239323A423B5230097A105B105F1F1AF
:102260008F859889A989BA89BC01CD010E94DF0EAA
:1022700087E293E00E947D0789819A81AB81BC81CE
:102280002D813E814F815885BC01CD010E94C4093A
:1022900082E393E00E947D0789819A81AB81BC81B2
:1022A00029853A854B855C85BC01CD010E94C40916
:1022B0008D859E850E947D0F81E090E0A0E0B0E0DA
:1022C0008093600690936106A0936206B0936306C4
:1022D00088E696E061E070E00E94482962960FB6B9
:1022E000F894DEBF0FBECDBFCF91DF911F910F914C
:1022F000FF90EF90DF90CF90BF90AF909F908F9026
:102300000895AF92CF92DF92EF92FF920F931F93B7
:10231000DF93CF93CDB7DEB72F970FB6F894DEBF1C
:102320000FBECDBF69837A838B839C832D833E83CD
:102330004F8358871A870987CB86DC86ED86FE8611
:10234000AF868091600690916106A0916206B0917F
:1023500063060097A105B10509F052C0809164069B
:1023600090916506A0916606B09167060097A10559
:10237000B10509F045C029813A814B815C818D818D
:102380009E81AF81B885281739074A075B07C1F1DD
:102390008B859C85AD85BE85BC01CD010E94DF0E7D
:1023A00087E293E00E947D0789819A81AB81BC819D
:1023B000BC01CD014F850E94540882E393E00E9446
:1023C0007D078D819E81AF81B885BC01CD014F8590
:1023D0000E94540889859A850E947D0F81E090E0D3
:1023E000A0E0B0E08093600690936106A09362063F
:1023F000B093630688E696E061E070E00E944829A9
:102400002F960FB6F894DEBF0FBECDBFCF91DF91F0
:102410001F910F91FF90EF90DF90CF90AF900895B4
:102420008F92AF92BF92CF92DF92EF92FF920F9373
:10243000DF93CF93CDB7DEB762970FB6F894DEBFC8
:102440000FBECDBF6B837C838D839E832F833887A4
:1024500049875A870B87FD86EC86AE86BF86C88A79
:10246000D98A8A8A1A8219828091600690916106BF
:10247000A0916206B09163060097A105B10509F02D
:10248000F6C08091640690916506A0916606B091B1
:1024900067060097A105B10509F0E9C02B813C81D1
:1024A0004D815E818F819885A985BA852817390766
:1024B0004A075B0741F48B85882F90E0817090700C
:1024C000882309F0D3C02B813C814D815E818F81AF
:1024D0009885A985BA85281739074A075B0721F42B
:1024E00081E090E09A8389838A89882F90E08071C7
:1024F0009070009789F12F81388549855A858B81A5
:102500009C81AD81BE8182179307A407B5075CF457
:102510008B85882F90E084709070009721F081E087
:1025200090E09A8389832F81388549855A858B81EC
:102530009C81AD81BE81281739074A075B07E4F506
:102540008B85882F90E0827090700097A9F181E0D0
:1025500090E09A83898330C02F81388549855A85D8
:102560008B819C81AD81BE8182179307A407B5073B
:1025700058F48B85882F90E084709070009721F03C
:1025800081E090E09A8389832F81388549855A8537
:102590008B819C81AD81BE81281739074A075B0773
:1025A00058F48B85882F90E082709070009721F00E
:1025B00081E090E09A83898389819A81009709F468
:1025C00056C08E859F85A889B989BC01CD010E941E
:1025D000DF0E87E293E00E947D078F819885A985B1
:1025E000BA85BC01CD014A890E9454088B85882F89
:1025F00090E082709070009721F088E393E00E9451
:102600007D078B85882F90E084709070009721F073
:102610008DE493E00E947D078B85882F90E0817088
:102620009070882321F08FE593E00E947D078B81D5
:102630009C81AD81BE81BC01CD014A890E945408B4
:102640008C859D850E947D0F81E090E0A0E0B0E048
:102650008093600690936106A0936206B093630630
:1026600088E696E061E070E00E94482900006296EA
:102670000FB6F894DEBF0FBECDBFCF91DF910F91A3
:10268000FF90EF90DF90CF90BF90AF908F90089524
:102690008F92AF92CF92DF92EF92FF920F931F93A0
:1026A000DF93CF93CDB7DEB7A4970FB6F894DEBF14
:1026B0000FBECDBF9E8B8D8B788F6F8B298F3A8FFE
:1026C0004B8F5C8F1E8F0D8FCF8ED8A2E9A2FAA2FE
:1026D000ABA28CA2898D9A8DAB8DBC8D89839A8398
:1026E000AB83BC838BA1882F90E08F7090709E830A
:1026F0008D8318861F828091600690916106A0915B
:102700006206B09163060097A105B10509F0AEC15C
:102710008091640690916506A0916606B091670667
:102720000097A105B10509F0A1C1898D9A8DAB8DE6
:10273000BC8D0097A105B10511F58F8D98A1A9A1B8
:10274000BAA1BC01CD010E94DF0E89EA93E00E948C
:102750007D078D8D9E8D0E947D0F81E090E0A0E031
:10276000B0E08093600690936106A0936206B093F8
:10277000630688E696E061E070E00E9448292D89B2
:102780003E898F89988D2817390709F46EC18D8984
:102790009E896F89788D2F8D38A149A15AA1ED8D21
:1027A000FE8D8F010E947D10009709F43DC181E0EC
:1027B00090E0A0E0B0E08093600690936106A09363
:1027C0006206B093630688E696E061E070E00E94DE
:1027D00048298D819E818130910521F082309105BB
:1027E00001F13EC08D899E89FC018081992787FD7A
:1027F0009095A92FB92F89879A87AB87BC878F8936
:10280000988DFC018081992787FD9095A92FB92F7C
:102810008D879E87AF87B88B81E090E098878F8304
:102820003EC08D899E89FC0180819181AA2797FDF8
:10283000A095BA2F89879A87AB87BC878F89988D97
:10284000FC0180819181AA2797FDA095BA2F8D87E1
:102850009E87AF87B88B82E090E098878F831FC0F8
:102860008D899E89FC0180819181A281B3818987B4
:102870009A87AB87BC878F89988DFC018081918175
:10288000A281B3818D879E87AF87B88B84E090E06B
:1028900098878F8384E090E09E838D830000298554
:1028A0003A854B855C858D859E85AF85B8892817CF
:1028B00039074A075B0709F4A4C08BA1882F90E071
:1028C00080729070009709F449C08D819E8182309A
:1028D000910508F043C081E090E0A0E0B0E0898B72
:1028E0009A8BAB8BBC8B8D819E81880F991F880F33
:1028F000991F880F991F9C0189899A89AB89BC8986
:1029000004C0880F991FAA1FBB1F2A95D2F70197F1
:10291000A109B109898B9A8BAB8BBC8B29853A8530
:102920004B855C8589899A89AB89BC8982239323ED
:10293000A423B52389879A87AB87BC872D853E85DD
:102940004F85588989899A89AB89BC8982239323C9
:10295000A423B5238D879E87AF87B88B8F8D98A1D1
:10296000A9A1BAA1BC01CD010E94DF0E8CE693E0C3
:102970000E947D07298D3A8D4B8D5C8D89819A81CE
:10298000AB81BC8179018A01E81AF90A0A0B1B0B99
:10299000D801C7010197A109B109BC01CD010E946D
:1029A000EB0887E293E00E947D0789859A85AB85D5
:1029B000BC85BC01CD014BA10E94540882E393E089
:1029C0000E947D078D859E85AF85B889BC01CD01AC
:1029D0004BA10E9454088D8D9E8D0E947D0F81E039
:1029E00090E0A0E0B0E08093600690936106A09331
:1029F0006206B093630688E696E061E070E00E94AC
:102A000048298CA1813041F42D893E898F81988598
:102A1000820F931F9E8B8D8B2F89388D8F81988588
:102A2000820F931F988F8F8B89819A81AB81BC8194
:102A30000097A105B105D1F021E089819A81AB8190
:102A4000BC810097A105B10509F420E089819A8134
:102A5000AB81BC810197A109B10989839A83AB83BA
:102A6000BC83222309F0B5CE01C00000A4960FB6A6
:102A7000F894DEBF0FBECDBFCF91DF911F910F91B4
:102A8000FF90EF90DF90CF90AF908F900895DF92FE
:102A9000EF92FF920F931F93DF93CF93CDB7DEB7E3
:102AA00060970FB6F894DEBF0FBECDBF6D837E83F7
:102AB0008F83988729873A874B875C87ED86FE86C8
:102AC0000F87188B69857A858B859C8529853A8542
:102AD0004B855C850E948A26DC01CB017C018D013F
:102AE00069857A858B859C8529853A854B855C85AA
:102AF0000E948A26DC01CB019C01AD01C801B7010F
:102B00000E94EF26882309F46BC011E069857A855D
:102B10008B859C8529853A854B855C850E94EF26AF
:102B2000882309F410E081E08127882309F458C044
:102B30006D857E858F8598892D853E854F85588941
:102B40000E948A26DC01CB017C018D016D857E858A
:102B50008F8598892D853E854F8558890E948A26C4
:102B6000DC01CB019C01AD01C801B7010E94EF2639
:102B70008823B1F111E06D857E858F8598892D853B
:102B80003E854F8558890E94EF26882309F410E07E
:102B900081E08127882321F111E069857A858B8581
:102BA0009C8520E030E0A9010E94EF2688230CF0EC
:102BB00010E081E0012F082711E06D857E858F856B
:102BC000988920E030E0A9010E94EF2688230CF0CC
:102BD00010E0802F8127882319F081E090E0BAC0AF
:102BE00069857A858B859C8529853A854B855C85A9
:102BF0000E94EF26882379F06D857E858F859889E0
:102C00002D853E854F8558890E94EF26882319F02F
:102C100081E090E09FC06D857E858F8598892985AC
:102C20003A854B855C850E948A26DC01CB0189832D
:102C30009A83AB83BC8311E069817A818B819C810B
:102C400020E030E0A9010E94EF2688230CF010E07C
:102C5000112349F089819A81AB81BC81B058898365
:102C60009A83AB83BC8311E06D817E818F819885CF
:102C700020E030E0A9010E94EF2688230CF010E04C
:102C8000112349F08D819E81AF81B885B0588D8325
:102C90009E83AF83B88711E069817A818B819C81A3
:102CA00029813A814B815C810E94EF26882309F4B7
:102CB00010E081E08127882309F44AC069817A8184
:102CC0008B819C8129813A814B815C810E948A267B
:102CD000DC01CB017C018D0169817A818B819C8132
:102CE00029813A814B815C810E948A26DC01CB01DB
:102CF0009C01AD01DD24D394C801B7010E94EF26E9
:102D0000882309F4DD2481E08D25882361F469811D
:102D10007A818B819C8129813A814B815C810E94DF
:102D2000EF268823A9F011E069817A818B819C814B
:102D30002D813E814F8158850E943E2818160CF047
:102D400010E081E08127882319F081E090E002C043
:102D500080E090E060960FB6F894DEBF0FBECDBF66
:102D6000CF91DF911F910F91FF90EF90DF90089529
:102D7000AF92CF92DF92EF92FF920F931F93DF9368
:102D8000CF93CDB7DEB767970FB6F894DEBF0FBE0F
:102D9000CDBF9A8789877C876B872D873E874F8732
:102DA000588B1A8B098BCB8ADC8AED8AFE8AAF8A14
:102DB0008D859E85AF85B88989839A83AB83BC83D3
:102DC00089859A859E838D838B859C8598878F8343
:102DD0008091600690916106A0916206B0916306B1
:102DE0000097A105B10509F007C180916406909193
:102DF0006506A0916606B09167060097A105B1052A
:102E000009F0FAC089819A81AB81BC810097A10544
:102E1000B10511F58B899C89AD89BE89BC01CD01B5
:102E20000E94DF0E89EA93E00E947D0789899A89D2
:102E30000E947D0F81E090E0A0E0B0E0809360060A
:102E400090936106A0936206B093630688E696E0CD
:102E500061E070E00E94482929853A858B859C8530
:102E60002817390709F4C7C089859A856B857C8541
:102E70002B893C894D895E89E989FA898F010E94F5
:102E80007D10009709F49DC081E090E0A0E0B0E0E3
:102E90008093600690936106A0936206B0936306E8
:102EA00088E696E061E070E00E9448298D819E816D
:102EB000FC0180819181A281B381BC01CD012CEA0A
:102EC00035EC47E257E30E944228DC01CB012D811B
:102ED0003E81F90120813181428153816F81788562
:102EE000FB01E080F18002811381BC01CD010E94D1
:102EF0004715009709F057C08B899C89AD89BE8919
:102F0000BC01CD010E94DF0E8CE693E00E947D079C
:102F10002D853E854F85588989819A81AB81BC81F9
:102F200079018A01E81AF90A0A0B1B0BD801C701BB
:102F30000197A109B109BC01CD010E94EB0887E20C
:102F400093E00E947D078D819E81FC0180819181AB
:102F5000A281B381BC01CD010E944A0A82E393E0C1
:102F60000E947D078F819885FC0180819181A281DB
:102F7000B381BC01CD010E944A0A89899A890E94C5
:102F80007D0F81E090E0A0E0B0E080936006909338
:102F90006106A0936206B093630688E696E061E05E
:102FA00070E00E9448298F89813029F48D819E81AB
:102FB00004969E838D838F819885049698878F834E
:102FC00001C0000021E089819A81AB81BC8100971A
:102FD000A105B10509F420E089819A81AB81BC810A
:102FE0000197A109B10989839A83AB83BC8322230A
:102FF00009F05CCF01C0000067960FB6F894DEBF01
:103000000FBECDBFCF91DF911F910F91FF90EF9039
:10301000DF90CF90AF9008958F929F92AF92BF9222
:10302000CF92DF92EF92FF920F931F93DF93CF9394
:10303000CDB7DEB762970FB6F894DEBF0FBECDBF37
:1030400069837A838B839C832D833E834F83588748
:10305000E986FA860B871C87DE86CD868F86988A5E
:10306000A98ABA8A8091600690916106A091620651
:10307000B09163060097A105B10509F055C0809194
:10308000640690916506A0916606B0916706009768
:10309000A105B10509F048C089819A81AB81BC8145
:1030A0002D813E814F815885E984FA840B851C85EA
:1030B000BC01CD010E9447150097B1F58F85988915
:1030C000A989BA89BC01CD010E94DF0E87E293E095
:1030D0000E947D078D819E81AF81B885BC01CD01A5
:1030E0000E944A0A82E393E00E947D0789859A85BF
:1030F000AB85BC85BC01CD010E944A0A8D859E85A9
:103100000E947D0F81E090E0A0E0B0E08093600637
:1031100090936106A0936206B093630688E696E0FA
:1031200061E070E00E94482962960FB6F894DEBF15
:103130000FBECDBFCF91DF911F910F91FF90EF9008
:10314000DF90CF90BF90AF909F908F900895DF92C7
:10315000EF92FF920F931F93DF93CF93CDB7DEB71C
:103160006F970FB6F894DEBF0FBECDBF6D8B7E8B11
:103170008F8B988F5A8F498F0B8F1C8F2D8F3E8F7F
:10318000EF8ECE010D9620E335E048E0F901008096
:103190002F5F3F4FFC010082019641504423B1F75D
:1031A0008F8D882F90E0A0E0B0E081709070A070CB
:1031B000B07089879A87AB87BC8781E090E0A0E0F8
:1031C000B0E029853A854B855C852115310541059F
:1031D000510519F080E090E0DC0189839A83AB838C
:1031E000BC838F8D8695882F90E0A0E0B0E08D8322
:1031F0009E83AF83B8878091600690916106A0910D
:103200006206B09163060097A105B10509F093C16C
:103210008091640690916506A0916606B09167065C
:103220000097A105B10509F086C18F8D882F90E028
:103230008430910544F4823091050CF05EC09923EE
:103240000CF419C109C0863091050CF4A7C0883070
:1032500091050CF010C1BAC06D897E898F89988D57
:103260002D893E894F89588D0E948A26DC01CB0129
:103270007C018D016D897E898F89988D2D893E898C
:103280004F89588D0E948A26DC01CB019C01AD013B
:10329000C801B7010E94EF26882321F111E06D8952
:1032A0007E898F89988D2D893E894F89588D0E94FE
:1032B000EF26882309F410E081E08127882391F02C
:1032C00011E06D897E898F89988D20E030E0A90119
:1032D0000E943E2818160CF010E0112319F081E02E
:1032E00090E002C080E090E0AA2797FDA095BA2F59
:1032F00089839A83AB83BC83C7C06D897E898F899C
:10330000988D2D893E894F89588D0E948A26DC012F
:10331000CB017C018D016D897E898F89988D2D89E6
:103320003E894F89588D0E948A26DC01CB019C0181
:10333000AD01C801B7010E94EF26882321F111E0F9
:103340006D897E898F89988D2D893E894F89588D09
:103350000E94EF26882309F410E081E0812788236A
:1033600091F011E06D897E898F89988D20E030E0A1
:10337000A9010E94EF2688230CF010E0112319F018
:1033800081E090E002C080E090E0AA2797FDA09540
:10339000BA2F89839A83AB83BC8376C0EE24FF2443
:1033A0008701E3946D897E898F89988D2D893E8967
:1033B0004F89588D0E94EF26882319F4EE24FF24AC
:1033C0008701E982FA820B831C835EC06D897E8946
:1033D0008F89988D2D893E894F89588D0E948A2624
:1033E000DC01CB017C018D016D897E898F89988DEF
:1033F0002D893E894F89588D0E948A26DC01CB0198
:103400009C01AD01DD24D394C801B7010E94EF26D1
:10341000882309F4DD2481E08D25882361F46D89FA
:103420007E898F89988D2D893E894F89588D0E947C
:10343000EF268823A9F011E06D897E898F89988D08
:103440002D893E894F89588D0E94EF26882309F4E3
:1034500010E081E08127882319F081E090E002C02C
:1034600080E090E0AA2797FDA095BA2F89839A83E0
:10347000AB83BC8309C01D821E821F82188686E42E
:1034800094E09E878D87000029813A814B815C8181
:1034900089859A85AB85BC85281739074A075B075C
:1034A00009F449C08B8D9C8DAD8DBE8DBC01CD01C5
:1034B0000E94DF0E87E293E00E947D0789859A854E
:1034C000AB85BC850097A105B10521F486E194E0A8
:1034D0000E947D078D819E81880F991F9E012F5F1D
:1034E0003F4F820F931F0C96FC01808191810E94B7
:1034F0007D0782E393E00E947D078D899E89AF89D5
:10350000B88DBC01CD010E944A0A898D9A8D0E9416
:103510007D0F81E090E0A0E0B0E0809360069093A2
:103520006106A0936206B093630688E696E061E0C8
:1035300070E00E9448296F960FB6F894DEBF0FBE68
:10354000CDBFCF91DF911F910F91FF90EF90DF9052
:1035500008958F929F92AF92BF92CF92DF92EF9297
:10356000FF920F931F93DF93CF93CDB7DEB7629790
:103570000FB6F894DEBF0FBECDBF69837A838B830D
:103580009C832D833E834F835887E986FA860B8779
:103590001C87DE86CD868F86988AA98ABA8A809112
:1035A000600690916106A0916206B0916306009753
:1035B000A105B10509F01CC18091640690916506D2
:1035C000A0916606B09167060097A105B10509F0C4
:1035D0000FC189A1882F90E080719070009709F445
:1035E0005BC029853A854B855C858D819E81AF8145
:1035F000B88582179307A407B5073CF529853A8556
:103600004B855C858D819E81AF81B88579018A016A
:10361000E81AF90A0A0B1B0B81E090E0A0E0B0E089
:1036200029813A814B815C812E153F054007510766
:1036300018F080E090E0DC018093600690936106D2
:10364000A0936206B093630681C02D813E814F81B5
:10365000588589859A85AB85BC8579018A01E81AE8
:10366000F90A0A0B1B0B81E090E0A0E0B0E0298191
:103670003A814B815C812E153F054007510718F0B8
:1036800080E090E0DC018093600690936106A09357
:103690006206B09363065AC029853A854B855C85DE
:1036A0008D819E81AF81B88582179307A407B507E6
:1036B00038F529853A854B855C858D819E81AF8162
:1036C000B88579018A01E81AF90A0A0B1B0B81E017
:1036D00090E0A0E0B0E029813A814B815C812E1519
:1036E0003F054007510718F080E090E0DC0180932F
:1036F000600690936106A0936206B093630626C0AD
:103700002D813E814F81588589859A85AB85BC8501
:1037100079018A01E81AF90A0A0B1B0B81E090E093
:10372000A0E0B0E029813A814B815C812E153F05F4
:103730004007510718F080E090E0DC0180936006BC
:1037400090936106A0936206B09363068091600631
:1037500090916106A0916206B09163060097A10561
:10376000B10509F445C08F859889A989BA89BC013A
:10377000CD010E94DF0E8FE893E00E947D078981D2
:103780009A81AB81BC81BC01CD0149A10E94540842
:1037900087E293E00E947D078D819E81AF81B8858D
:1037A000BC01CD0149A10E94540882E393E00E942C
:1037B0007D0789859A85AB85BC85BC01CD0149A172
:1037C0000E9454088D859E850E947D0F81E090E0C7
:1037D000A0E0B0E08093600690936106A09362063B
:1037E000B093630688E696E061E070E00E944829A5
:1037F00062960FB6F894DEBF0FBECDBFCF91DF91BA
:103800001F910F91FF90EF90DF90CF90BF90AF90FE
:103810009F908F9008958F929F92AF92BF92CF9278
:10382000DF92EF92FF920F931F93DF93CF93CDB769
:10383000DEB7A6970FB6F894DEBF0FBECDBF6D8B77
:103840007E8B8F8B988F5A8F498F3C8F2B8FED8E6D
:10385000FE8E0F8F18A3DAA2C9A28BA29CA2ADA2E2
:10386000BEA28D8D9E8DAF8DB8A189839A83AB83C7
:10387000BC838DA9882F90E08F7090709E838D837C
:1038800018861F828091600690916106A091620661
:10389000B09163060097A105B10509F077C2809148
:1038A000640690916506A0916606B0916706009740
:1038B000A105B10509F06AC28D8D9E8DAF8DB8A1AD
:1038C0000097A105B10511F58BA19CA1ADA1BEA1E9
:1038D000BC01CD010E94DF0E89EA93E00E947D07C2
:1038E00089A19AA10E947D0F81E090E0A0E0B0E064
:1038F0008093600690936106A0936206B09363067E
:1039000088E696E061E070E00E944829298D3A8DB2
:103910008B8D9C8D2817390709F437C2898D9A8DB4
:103920006B8D7C8D2BA13CA14DA15EA1E9A1FAA1DB
:103930008F010E947D10009709F406C281E090E09B
:10394000A0E0B0E08093600690936106A0936206C9
:10395000B093630688E696E061E070E00E94482933
:103960008D819E818130910521F08230910501F198
:103970003EC0898D9A8DFC018081992787FD9095A5
:10398000A92FB92F89879A87AB87BC878B8D9C8D90
:10399000FC018081992787FD9095A92FB92F8D87EC
:1039A0009E87AF87B88B81E090E098878F833EC079
:1039B000898D9A8DFC0180819181AA2797FDA09520
:1039C000BA2F89879A87AB87BC878B8D9C8DFC012A
:1039D00080819181AA2797FDA095BA2F8D879E8718
:1039E000AF87B88B82E090E098878F831FC0898D66
:1039F0009A8DFC0180819181A281B38189879A8708
:103A0000AB87BC878B8D9C8DFC0180819181A281CD
:103A1000B3818D879E87AF87B88B84E090E09887CD
:103A20008F8384E090E09E838D8300008DA9882F92
:103A300090E080719070009709F45BC02D853E8501
:103A40004F85588989859A85AB85BC8582179307F0
:103A5000A407B5073CF52D853E854F855889898596
:103A60009A85AB85BC8579018A01E81AF90A0A0BA7
:103A70001B0B81E090E0A0E0B0E02D893E894F89EA
:103A8000588D2E153F054007510718F080E090E053
:103A9000DC018093600690936106A0936206B09368
:103AA000630681C029853A854B855C858D859E8519
:103AB000AF85B88979018A01E81AF90A0A0B1B0B4C
:103AC00081E090E0A0E0B0E02D893E894F89588DDB
:103AD0002E153F054007510718F080E090E0DC010B
:103AE0008093600690936106A0936206B09363068C
:103AF0005AC02D853E854F85588989859A85AB8525
:103B0000BC8582179307A407B50738F52D853E8538
:103B10004F85588989859A85AB85BC8579018A014D
:103B2000E81AF90A0A0B1B0B81E090E0A0E0B0E074
:103B30002D893E894F89588D2E153F054007510725
:103B400018F080E090E0DC018093600690936106BD
:103B5000A0936206B093630626C029853A854B85FB
:103B60005C858D859E85AF85B88979018A01E81AC3
:103B7000F90A0A0B1B0B81E090E0A0E0B0E02D8970
:103B80003E894F89588D2E153F054007510718F083
:103B900080E090E0DC018093600690936106A09342
:103BA0006206B09363068091600690916106A091D1
:103BB0006206B09163060097A105B10509F4B1C092
:103BC0008DA9882F90E080729070009709F449C009
:103BD0008D819E818230910508F043C081E090E0A4
:103BE000A0E0B0E0898B9A8BAB8BBC8B8D819E81E2
:103BF000880F991F880F991F880F991F9C01898929
:103C00009A89AB89BC8904C0880F991FAA1FBB1F62
:103C10002A95D2F70197A109B109898B9A8BAB8BB1
:103C2000BC8B29853A854B855C8589899A89AB89C6
:103C3000BC8982239323A423B52389879A87AB87E2
:103C4000BC872D853E854F85588989899A89AB899E
:103C5000BC8982239323A423B5238D879E87AF87B6
:103C6000B88B8BA19CA1ADA1BEA1BC01CD010E94CE
:103C7000DF0E8FE893E00E947D078D899E89AF89D2
:103C8000B88DBC01CD014DA90E9454088CE693E08B
:103C90000E947D072D8D3E8D4F8D58A189819A817F
:103CA000AB81BC8179018A01E81AF90A0A0B1B0B66
:103CB000D801C7010197A109B109BC01CD010E943A
:103CC000EB0887E293E00E947D0789859A85AB85A2
:103CD000BC85BC01CD014DA90E94540882E393E04C
:103CE0000E947D078D859E85AF85B889BC01CD0179
:103CF0004DA90E94540889A19AA10E947D0F81E0DC
:103D000090E0A0E0B0E08093600690936106A093FD
:103D10006206B093630688E696E061E070E00E9478
:103D200048298EA9813041F4298D3A8D8F8198855B
:103D3000820F931F9A8F898F2B8D3C8D8F81988551
:103D4000820F931F9C8F8B8F89819A81AB81BC815D
:103D50000097A105B105D1F021E089819A81AB815D
:103D6000BC810097A105B10509F420E089819A8101
:103D7000AB81BC810197A109B10989839A83AB8387
:103D8000BC83222309F0ECCD01C00000A6960FB63B
:103D9000F894DEBF0FBECDBFCF91DF911F910F9181
:103DA000FF90EF90DF90CF90BF90AF909F908F905B
:103DB00008950F931F93DF93CF93CDB7DEB72E9760
:103DC0000FB6F894DEBF0FBECDBF9E838D8378877C
:103DD0006F835A8749870B871C872D873E87809181
:103DE000600690916106A0916206B091630600970B
:103DF000A105B10509F0A0C0809164069091650607
:103E0000A0916606B09167060097A105B10509F07B
:103E100093C08D819E81009709F44AC08F81988557
:103E2000009709F445C019821A821B821C822BC09C
:103E300089819A812D813E81820F931FFC014081EF
:103E400089819A812F813885820F931FFC0180819F
:103E5000481771F081E090E0A0E0B0E08093600648
:103E600090936106A0936206B0936306000033C08E
:103E700089819A81AB81BC810196A11DB11D898385
:103E80009A83AB83BC8389819A812D813E81820F85
:103E9000931FFC018081882359F689819A812F81A3
:103EA0003885820F931FFC018081882309F613C097
:103EB0002D813E818F8198852817390761F081E037
:103EC00090E0A0E0B0E08093600690936106A0933C
:103ED0006206B09363068091600690916106A0919E
:103EE0006206B09163060097A105B10529F18B85A3
:103EF0009C85AD85BE85BC01CD010E94DF0E8D8104
:103F00009E812F813885B9010E94B90F89859A85D4
:103F10000E947D0F81E090E0A0E0B0E08093600619
:103F200090936106A0936206B093630688E696E0DC
:103F300061E070E00E9448292E960FB6F894DEBF2B
:103F40000FBECDBFCF91DF911F910F910895CF92FA
:103F5000DF92EF92FF920F931F93DF93CF93CDB732
:103F6000DEB762970FB6F894DEBF0FBECDBF9E835B
:103F70008D8378876F8329873A874B875C871E8775
:103F80000D87CF86D88AE98AFA8A80916006909157
:103F90006106A0916206B09163060097A105B10584
:103FA00009F0B4C08091640690916506A091660600
:103FB000B09167060097A105B10509F0A7C08D81F2
:103FC0009E81009709F459C08F819885009709F464
:103FD00054C019821A821B821C822BC089819A814B
:103FE0002D813E81820F931FFC01408189819A813E
:103FF0002F813885820F931FFC018081481771F053
:1040000081E090E0A0E0B0E08093600690936106CC
:10401000A0936206B0936306000044C089819A8130
:10402000AB81BC810196A11DB11D89839A83AB83AD
:10403000BC8329813A814B815C8189859A85AB85D6
:10404000BC85281739074A075B0758F589819A818B
:104050002D813E81820F931FFC018081882309F00E
:10406000BDCF89819A812F813885820F931FFC01F2
:104070008081882309F0B2CF15C02D813E818F81C8
:1040800098852817390771F081E090E0A0E0B0E052
:104090008093600690936106A0936206B0936306D6
:1040A00001C000008091600690916106A0916206B7
:1040B000B09163060097A105B10541F18F859889FC
:1040C000A989BA89BC01CD010E94DF0E8D819E8134
:1040D0006F81788529853A854B855C850E94101013
:1040E0008D859E850E947D0F81E090E0A0E0B0E08C
:1040F0008093600690936106A0936206B093630676
:1041000088E696E061E070E00E94482962960FB66A
:10411000F894DEBF0FBECDBFCF91DF911F910F91FD
:10412000FF90EF90DF90CF900895AF92CF92DF9203
:10413000EF92FF920F931F93DF93CF93CDB7DEB72C
:104140006B970FB6F894DEBF0FBECDBF9E878D87ED
:10415000788B6F87298B3A8B4B8B5C8B1E8B0D8BEF
:10416000CF8AD88EE98EFA8EAB8E19821A821B8284
:104170001C821D821E821F8218861A8619861C8642
:104180001B868091600690916106A0916206B091B5
:1041900063060097A105B10509F047C18091640647
:1041A00090916506A0916606B09167060097A105FB
:1041B000B10509F03AC189899A89AB89BC89009710
:1041C000A105B10511F58F89988DA98DBA8DBC0116
:1041D000CD010E94DF0E89EA93E00E947D078D8960
:1041E0009E890E947D0F81E090E0A0E0B0E0809386
:1041F000600690936106A0936206B093630688E61A
:1042000096E061E070E00E9448292D853E858F850B
:1042100098892817390709F407C18D859E856F8510
:1042200078892F89388D498D5A8DED89FE898F01C6
:104230000E947D10009791F081E090E0A0E0B0E056
:104240008093600690936106A0936206B093630624
:1042500088E696E061E070E00E9448298B8D81300D
:1042600021F08D859E859A8789878D819E81880F13
:10427000991F2F853889820F931FFC0180819181BE
:104280009C878B878B8D813069F42D853E858D8150
:104290009E81880F991F820F931FFC01808191815D
:1042A0009A87898789859A85009709F44AC08B8502
:1042B0009C85009709F445C019821A821B821C82D2
:1042C0002BC089819A8129853A85820F931FFC0131
:1042D000408189819A812B853C85820F931FFC0147
:1042E0008081481771F081E090E0A0E0B0E0809319
:1042F000600690936106A0936206B0936306000087
:1043000033C089819A81AB81BC810196A11DB11D09
:1043100089839A83AB83BC8389819A8129853A8575
:10432000820F931FFC018081882359F689819A812D
:104330002B853C85820F931FFC018081882309F621
:1043400013C029853A858B859C852817390761F02C
:1043500081E090E0A0E0B0E0809360069093610679
:10436000A0936206B0936306809160069091610607
:10437000A0916206B09163060097A105B105D1F145
:104380008F89988DA98DBA8DBC01CD010E94DF0E59
:1043900089899A89AB89BC8982309105A105B105CB
:1043A00060F08CE693E00E947D078D819E81AF8155
:1043B000B885BC01CD010E94EB0889859A852B85C3
:1043C0003C85B9010E94B90F8D899E890E947D0F9D
:1043D00081E090E0A0E0B0E08093600690936106F9
:1043E000A0936206B093630688E696E061E070E011
:1043F0000E9448298D819E81AF81B8850196A11DBB
:10440000B11D8D839E83AF83B8872D813E814F81FF
:10441000588589899A89AB89BC89281739074A0741
:104420005B0708F422CF01C000006B960FB6F8942A
:10443000DEBF0FBECDBFCF91DF911F910F91FF90D7
:10444000EF90DF90CF90AF9008958F929F92AF92B0
:10445000BF92CF92DF92EF92FF920F931F93DF9361
:10446000CF93CDB7DEB76E970FB6F894DEBF0FBE11
:10447000CDBF9E878D87788B6F87298B3A8B4B8B2F
:104480005C8BED8AFE8A0F8B188FDA8EC98E8B8E2D
:104490009C8EAD8EBE8E8D859E859A8389838F85F9
:1044A00098899C838B838D899E89AF89B88D8D83F4
:1044B0009E83AF83B8878091600690916106A0913A
:1044C0006206B09163060097A105B10509F045C1E8
:1044D0008091640690916506A0916606B09167068A
:1044E0000097A105B10509F038C18D819E81AF818A
:1044F000B8850097A105B10541F089899A89AB89F2
:10450000BC890097A105B10511F58B8D9C8DAD8DF2
:10451000BE8DBC01CD010E94DF0E89EA93E00E94AE
:104520007D07898D9A8D0E947D0F81E090E0A0E04B
:10453000B0E08093600690936106A0936206B0930A
:10454000630688E696E061E070E00E9448292D85C8
:104550003E858F8598892817390709F4FDC08D8518
:104560009E856F8578892B8D3C8D4D8D5E8DE98D77
:10457000FA8D8F010E947D10009709F4D3C081E06D
:1045800090E0A0E0B0E08093600690936106A09375
:104590006206B093630688E696E061E070E00E94F0
:1045A000482989899A89AB89BC8989879A87AB8789
:1045B000BC8798C089819A81FC0120818B819C8174
:1045C000FC018081281709F483C08B8D9C8DAD8DF3
:1045D000BE8DBC01CD010E94DF0E8DE793E00E94ED
:1045E0007D078D899E89AF89B88D82309105A1059F
:1045F000B105D8F08CE693E00E947D072D893E89B5
:104600004F89588D8D819E81AF81B88579018A014E
:10461000E81AF90A0A0B1B0BD801C7010197A10977
:10462000B109BC01CD010E94EB0886E793E00E942E
:104630007D0729893A894B895C8989859A85AB856B
:10464000BC8579018A01E81AF90A0A0B1B0BD8010B
:10465000C7010197A109B109BC01CD010E94EB0876
:1046600087E293E00E947D0789819A81FC01808125
:10467000882F90E0A0E0B0E0BC01CD0141E40E94B1
:10468000540882E393E00E947D078B819C81FC01AA
:104690008081882F90E0A0E0B0E0BC01CD0141E432
:1046A0000E945408898D9A8D0E947D0F81E090E0D0
:1046B000A0E0B0E08093600690936106A09362064C
:1046C000B093630688E696E061E070E00E944829B6
:1046D00089819A8101969A8389838B819C81019635
:1046E0009C838B8321E089859A85AB85BC85009767
:1046F000A105B10509F420E089859A85AB85BC85C3
:104700000197A109B10989879A87AB87BC872223C2
:1047100009F050CF8DA5882331F48D859E859A832D
:10472000898301C0000021E08D819E81AF81B88521
:104730000097A105B10509F420E08D819E81AF812C
:10474000B8850197A109B1098D839E83AF83B8878E
:10475000222309F026CF01C000006E960FB6F89410
:10476000DEBF0FBECDBFCF91DF911F910F91FF90A4
:10477000EF90DF90CF90BF90AF909F908F90089573
:10478000DF93CF9300D000D00F92CDB7DEB769830F
:104790007A838B839C834D838D81882F90E0813039
:1047A000910521F08230910539F00FC08981809305
:1047B000440584E495E017C089819A81909345056A
:1047C0008093440584E495E00EC089819A81AB8191
:1047D000BC818093440590934505A0934605B09312
:1047E000470584E495E00F900F900F900F900F9085
:1047F000CF91DF910895DF93CF9300D000D0CDB754
:10480000DEB769837A838B839C8389819A81AB81AC
:10481000BC818093440590934505A0934605B093D1
:10482000470584E495E00F900F900F900F90CF9183
:10483000DF910895DF93CF9300D000D000D0CDB7A3
:10484000DEB79A8389834B835C836D837E838091FB
:10485000600690916106A0916206B0916306009790
:10486000A105B10509F074C08091640690916506B8
:10487000A0916606B09167060097A105B10509F001
:1048800067C080914806909149062B813C814D81FB
:104890005E81BA01A9010E949C0E83E193E00E940F
:1048A0007D0789819A81009709F440C02091810693
:1048B000309182068AE390E0B9010E9482298091BA
:1048C0004C0690914D060097F1F08CE095E00E9427
:1048D0007D0780914C0690914D060E947D07809146
:1048E0004E0690914F06009751F086E195E00E94A8
:1048F0007D0780914E0690914F060E947D0784E2CD
:1049000093E00E947D0789819A81FC018081803239
:1049100049F0209181063091820680E290E0B90151
:104920000E94822989819A810E947D0781E090E01E
:10493000A0E0B0E08093600690936106A0936206C9
:10494000B093630688E696E061E070E00E94482933
:1049500026960FB6F894DEBF0FBECDBFCF91DF9184
:104960000895DF93CF9300D000D000D0CDB7DEB74D
:104970009A8389834B835C836D837E8380916006F9
:1049800090916106A0916206B09163060097A1051F
:10499000B10509F048C08091640690916506A09128
:1049A0006606B09167060097A105B105E1F5809113
:1049B0004806909149062B813C814D815E81BA0168
:1049C000A9010E949C0E88E193E00E947D078981E5
:1049D0009A810097B1F020918106309182068AE396
:1049E00090E0B9010E9482292091810630918206CF
:1049F00080E290E0B9010E94822989819A810E9417
:104A00007D0781E090E0A0E0B0E0809364069093A1
:104A10006506A0936606B093670688E696E061E0B7
:104A200070E00E94482926960FB6F894DEBF0FBEAC
:104A3000CDBFCF91DF910895DF93CF9300D000D009
:104A400000D0CDB7DEB79A8389834B835C836D83B7
:104A50007E8380914806909149062B813C814D814F
:104A60005E81BA01A9010E949C0E8BE295E00E9432
:104A70007D0789819A810097B1F02091810630915C
:104A800082068AE390E0B9010E9482292091810682
:104A90003091820680E290E0B9010E9482298981EA
:104AA0009A810E947D0720918106309182068AE0DA
:104AB00090E0B9010E94822926960FB6F894DEBFD5
:104AC0000FBECDBFCF91DF910895DF93CF9300D07C
:104AD00000D000D0CDB7DEB79A8389837C836B8307
:104AE0005E834D838B819C8190934B0680934A0615
:104AF0008D819E81AA2797FDA095BA2F809350069D
:104B000090935106A0935206B09353068091540699
:104B100090915506A0915606B09157060196A11D99
:104B2000B11D8093540690935506A0935606B093FA
:104B3000570610924D0610924C0610924F06109296
:104B40004E0688E696E00E942829009731F40E94DC
:104B5000180689819A81FC01099588E696E00E94F1
:104B60002829009711F40E941F060E94090F26961B
:104B70000FB6F894DEBF0FBECDBFCF91DF91089581
:104B8000DF93CF9300D0CDB7DEB79A838983898135
:104B90009A81909349068093480610924B06109292
:104BA0004A06109250061092510610925206109228
:104BB0005306109254061092550610925606109203
:104BC0005706109258061092590610925A061092E3
:104BD0005B0610925C0610925D0610925E061092C3
:104BE0005F061092600610926106109262061092A3
:104BF0006306109264061092650610926606109283
:104C0000670610924D0610924C0610924F061092B5
:104C10004E060F900F90CF91DF910895DF93CF93C1
:104C2000CDB7DEB720918106309182068AE090E010
:104C3000B9010E94822987ED94E00E947D072091AE
:104C40008106309182068AE090E0B9010E948229B3
:104C50008091540690915506A0915606B091570642
:104C6000BC01CD010E94A6088FEE94E00E947D0752
:104C70008091580690915906A0915A06B0915B0612
:104C8000BC01CD010E94A60887EF94E00E947D0739
:104C900080915C0690915D06A0915E06B0915F06E2
:104CA000BC01CD010E94A60882E095E00E947D072C
:104CB00020918106309182068AE090E0B9010E943D
:104CC00082298091580690915906A0915A06B09178
:104CD0005B060097A105B10529F48BE093E00E94E3
:104CE0007D0704C083E193E00E947D072091810647
:104CF000309182068AE090E0B9010E948229809179
:104D0000580690915906A0915A06B0915B06CF9132
:104D1000DF9108955058BB27AA270ED075C166D1E0
:104D200030F06BD120F031F49F3F11F41EF45BC1E1
:104D30000EF4E095E7FB51C1E92F77D180F3BA1764
:104D4000620773078407950718F071F49EF58FC109
:104D50000EF4E0950B2EBA2FA02D0B01B901900196
:104D60000C01CA01A0011124FF27591B99F0593FDA
:104D700050F4503E68F11A16F040A22F232F342F22
:104D80004427585FF3CF469537952795A795F04070
:104D90005395C9F77EF41F16BA0B620B730B840B85
:104DA000BAF09150A1F0FF0FBB1F661F771F881F3D
:104DB000C2F70EC0BA0F621F731F841F48F4879595
:104DC00077956795B795F7959E3F08F0B3CF939584
:104DD000880F08F09927EE0F979587950895D9D0F9
:104DE00008F481E008950CD00FC107D140F0FED047
:104DF00030F021F45F3F19F0F0C0511139C1F3C018
:104E000014D198F39923C9F35523B1F3951B550B8E
:104E1000BB27AA2762177307840738F09F5F5F4F8D
:104E2000220F331F441FAA1FA9F333D00E2E3AF0CE
:104E3000E0E830D091505040E695001CCAF729D0E8
:104E4000FE2F27D0660F771F881FBB1F2617370737
:104E50004807AB07B0E809F0BB0B802DBF01FF2767
:104E600093585F4F2AF09E3F510568F0B6C000C1CD
:104E70005F3FECF3983EDCF3869577956795B795A1
:104E8000F7959F5FC9F7880F911D9695879597F9BC
:104E90000895E1E0660F771F881FBB1F6217730735
:104EA0008407BA0720F0621B730B840BBA0BEE1F4A
:104EB00088F7E095089504D06894B111D9C0089599
:104EC000BCD088F09F5790F0B92F9927B751A0F028
:104ED000D1F0660F771F881F991F1AF0BA95C9F78E
:104EE00012C0B13081F0C3D0B1E00895C0C0672FC7
:104EF000782F8827B85F39F0B93FCCF3869577953E
:104F00006795B395D9F73EF4909580957095619526
:104F10007F4F8F4F9F4F0895E89409C097FB3EF451
:104F200090958095709561957F4F8F4F9F4F9923F6
:104F3000A9F0F92F96E9BB279395F6958795779574
:104F40006795B795F111F8CFFAF4BB0F11F460FF34
:104F50001BC06F5F7F4F8F4F9F4F16C0882311F08C
:104F600096E911C0772321F09EE8872F762F05C0A0
:104F7000662371F096E8862F70E060E02AF09A953B
:104F8000660F771F881FDAF7880F9695879597F930
:104F90000895990F0008550FAA0BE0E8FEEF1616CA
:104FA0001706E807F907C0F012161306E407F5071D
:104FB00098F0621B730B840B950B39F40A2661F091
:104FC000232B242B252B21F408950A2609F4A14034
:104FD000A6958FEF811D811D089597F99F6780E841
:104FE00070E060E008959FEF80EC089500240A943B
:104FF0001616170618060906089500240A941216B4
:105000001306140605060895092E0394000C11F4E6
:10501000882352F0BB0F40F4BF2B11F460FF04C093
:105020006F5F7F4F8F4F9F4F089557FD9058440FEC
:10503000551F59F05F3F71F04795880F97FB991FF7
:1050400061F09F3F79F087950895121613061406B4
:10505000551FF2CF4695F1DF08C016161706180641
:10506000991FF1CF86957105610508940895E8941C
:10507000BB2766277727CB0197F908958ADF08F4C5
:105080008FEF08950BD0C0CFB1DF28F0B6DF18F056
:10509000952309F0A2CFA7CF1124EACFC6DFA0F352
:1050A000959FD1F3950F50E0551F629FF001729FBD
:1050B000BB27F00DB11D639FAA27F00DB11DAA1FDC
:1050C000649F6627B00DA11D661F829F2227B00D29
:1050D000A11D621F739FB00DA11D621F839FA00DB4
:1050E000611D221F749F3327A00D611D231F849F04
:1050F000600D211D822F762F6A2F11249F5750405B
:105100008AF0E1F088234AF0EE0FFF1FBB1F661FF5
:10511000771F881F91505040A9F79E3F510570F0AE
:105120005CCFA6CF5F3FECF3983EDCF38695779596
:105130006795B795F795E7959F5FC1F7FE2B880FA9
:10514000911D9695879597F90895629FD001739F59
:10515000F001829FE00DF11D649FE00DF11D929F13
:10516000F00D839FF00D749FF00D659FF00D992752
:10517000729FB00DE11DF91F639FB00DE11DF91F76
:10518000BD01CF011124089597FB092E07260AD0EF
:1051900077FD04D049D006D000201AF470956195AF
:1051A0007F4F0895F6F7909581959F4F0895A1E25E
:1051B0001A2EAA1BBB1BFD010DC0AA1FBB1FEE1F91
:1051C000FF1FA217B307E407F50720F0A21BB30BDC
:1051D000E40BF50B661F771F881F991F1A9469F758
:1051E00060957095809590959B01AC01BD01CF01B4
:1051F000089597FB092E05260ED057FD04D0D7DF62
:105200000AD0001C38F450954095309521953F4FB9
:105210004F4F5F4F0895F6F7909580957095619583
:105220007F4F8F4F9F4F0895AA1BBB1B51E107C0B3
:10523000AA1FBB1FA617B70710F0A61BB70B881F26
:10524000991F5A95A9F780959095BC01CD010895B5
:10525000DC012D923D924D925D926D927D928D92E8
:105260009D92AD92BD92CD92DD92ED92FD920D9305
:105270001D93CD93DD93FF91EF918DB78D938EB7F5
:105280008D938FB78D93ED93FD938827992709947C
:10529000DC01CB0181309105811D2D903D904D9019
:1052A0005D906D907D908D909D90AD90BD90CD90D6
:1052B000DD90ED90FD900D911D91CD91DD91ED91E1
:1052C000FD910D90F894FEBF0FBEEDBFED91FD91E5
:1052D0000994FB01DC018D91019080190110D9F333
:1052E000990B0895FB01DC010D900020E9F711975F
:1052F0004150504028F0019000200D92C9F70895C8
:105300001C9208950F931F93CF93DF938C01EB01B1
:105310008B8181FF1BC082FF0DC02E813F818C815C
:105320009D812817390764F4E881F9810193F98395
:10533000E88306C0E885F985802F0995009731F448
:105340008E819F8101969F838E8302C00FEF1FEF96
:10535000C801DF91CF911F910F910895A0E0B0E0B7
:10536000E4EBF9E20C942E2CFE01359661917191DB
:105370008091810690918206AF010E94C3292096F8
:10538000E2E00C944A2CACE0B0E0E9ECF9E20C94D9
:105390001E2C6C011B018A01FC011782168283817D
:1053A00081FFD1C12E010894411C511CF60193814B
:1053B000F10193FD859193FF81911F01882309F4E9
:1053C000BEC1853239F493FD859193FF81911F0110
:1053D000853229F490E0B6010E948229E7CFEE24BD
:1053E000FF2420E02032B0F48B3269F08C3228F4B4
:1053F000803251F0833271F40BC08D3239F080333A
:1054000049F421602CC02260246029C0286027C094
:10541000206125C027FD2CC0382F30533A3098F436
:1054200026FF08C08E2D880FE82EEE0CEE0CE80E3D
:10543000E30E15C08F2D880FF82EFF0CFF0CF80E11
:10544000F30E20620CC08E3221F426FD78C1206458
:1054500006C08C3611F4206802C0883649F4F10188
:1054600093FD859193FF81911F01882309F0BACFA5
:10547000982F9554933018F09052933028F40C5F85
:105480001F4FFFE3F9830DC0833631F0833771F08E
:10549000833509F060C022C0F801808189830E5FE6
:1054A0001F4F420171E0A72EB12C16C062E0662E9C
:1054B000712C600E711EF8018080918026FF03C060
:1054C0006E2D70E002C06FEF7FEFC4012C870E9449
:1054D000B52B5C0183012C852F7717C052E0652E18
:1054E000712C600E711EF8018080918026FF03C030
:1054F0006E2D70E002C06FEF7FEFC4012C870E9419
:10550000AA2B5C012C852068830123FD20C008C0E4
:1055100080E290E0B6012C870E948229FA942C85C3
:105520008F2D90E0A816B90698F311C0F40127FD5D
:10553000859127FF81914F0190E0B6012C870E9451
:1055400082292C85F110FA940894A108B108A114BD
:10555000B10461F7F1C0843611F0893649F527FFAF
:1055600008C0F80160817181828193810C5F1F4FB7
:1055700009C0F80160817181882777FD8095982F97
:105580000E5F1F4F4FE6B42EB22297FF09C09095D1
:105590008095709561957F4F8F4F9F4FF0E8BF2AA0
:1055A000A2012AE030E00E94C02B782E741845C07A
:1055B000853731F43FEEB32EB2222AE030E025C029
:1055C00099EFB92EB2228F36C1F0803720F488359A
:1055D00009F0B5C00DC0803721F0883709F0AFC0A1
:1055E00002C020E1B22AB4FE0BC084E0B82A08C091
:1055F000B4FE09C0E6E0BE2A06C028E030E005C0DF
:1056000020E130E002C020E132E0B7FE08C0F8013E
:1056100060817181828193810C5F1F4F07C0F80107
:105620006081718180E090E00E5F1F4FA2010E94B7
:10563000C02B782E7418FFE7BF22B6FE0BC02EEFEA
:10564000B2227E1438F4B4FE07C0B2FC05C08FEE5F
:10565000B82202C0A72C01C0AE2C8B2D90E0B4FE66
:105660000DC0FE01E70DF11D2081203319F4E9EE94
:10567000BE2209C0A394B2FE06C004C08678907012
:10568000009709F0A3948B2C9924B3FC14C0B0FEAE
:105690000FC0AF1428F4E72CEF0CEA18AF2C08C0A9
:1056A000E72C06C080E290E0B6010E948229A39414
:1056B000AF14C0F304C0AF1410F4FA1801C0FF24F3
:1056C00084FE0FC080E390E0B6010E94822982FE32
:1056D0001FC081FE03C088E590E010C088E790E01D
:1056E0000DC0C40186789070009791F081FC02C0D3
:1056F00080E201C08BE2B7FC8DE290E0B6010E942F
:10570000822906C080E390E0B6010E948229EA94D3
:105710007E14C0F37A94F201E70DF11D808190E0D0
:10572000B6010E9482297720A9F706C080E290E0A6
:10573000B6010E948229FA94FF20C1F737CEF60104
:105740002681378102C02FEF3FEFC9012C96E2E19D
:105750000C943A2CFC010590615070400110D8F770
:10576000809590958E0F9F1F0895FC0161507040A9
:1057700001900110D8F7809590958E0F9F1F089586
:10578000FA01AA27283051F1203181F1E8946F9372
:105790006E7F6E5F7F4F8F4F9F4FAF4FB1E03ED018
:1057A000B4E03CD0670F781F891F9A1FA11D680FB6
:1057B000791F8A1F911DA11D6A0F711D811D911DE9
:1057C000A11D20D009F468943F912AE0269F11245E
:1057D0003019305D3193DEF6CF010895462F4770C2
:1057E000405D4193B3E00FD0C9F7F6CF462F4F701D
:1057F000405D4A3318F0495D31FD4052419302D07B
:10580000A9F7EACFB4E0A695979587957795679520
:10581000BA95C9F700976105710508959B01AC0120
:105820000A2E06945795479537952795BA95C9F747
:10583000620F731F841F951FA01D08952F923F9222
:105840004F925F926F927F928F929F92AF92BF9290
:10585000CF92DF92EF92FF920F931F93CF93DF933C
:10586000CDB7DEB7CA1BDB0B0FB6F894DEBF0FBE99
:10587000CDBF09942A88398848885F846E847D84E6
:105880008C849B84AA84B984C884DF80EE80FD80E8
:105890000C811B81AA81B981CE0FD11D0FB6F8945E
:0E58A000DEBF0FBECDBFED010895F894FFCF1F
:1058AE0002000201020202030204020502060207BE
:1058BE0000000001000200030004000501000101C8
:1058CE000102010301040105546573745F47706999
:1058DE006F5F476574506F727442617365005465F3
:1058EE0073745F4770696F5F436F6D6D616E645067
:1058FE00756C6C55705265736973746F7253657401
:10590E0074696E6700546573745F4770696F5F509A
:10591E00696E4D6F646500546573745F4770696F8F
:10592E005F4469676974616C577269746500000041
:10593E0028013E016501770154432E0046756E63C2
:10594E003A20257300696E6465783A20256400005C
:10595E000000000000000000000000000000000039
:10596E000000000000000000000000000000000029
:10597E000000000000000000000000000000000019
:10598E000000000000000000000000000000000009
:10599E0000000000000000000000000000000000F9
:1059AE0000000000000000000000000000000000E9
:1059BE0000000000000000000000000000000000D9
:1059CE0000000000000000000000000000000000C9
:1059DE0000000000000000000000000000000000B9
:1059EE0000000000000000000000000000000000A9
:1059FE000000000000000000000000000000000099
:105A0E000000000000000000000000000000000088
:105A1E000000000000000000000000000000000078
:105A2E000000000000000000000000000000000068
:105A3E000000000000000000000000000000000058
:105A4E000000000000000000000000000000000048
:105A5E0000030000000300000000CF020000000061
:105A6E0053746172742074657374696E67002E2EA0
:105A7E002F756E697474657374696E672F736F75A5
:105A8E007263652F75745F6D61696E2E6300546568
:105A9E0073745F52756E54657374636173650045FC
:105AAE006E642074657374696E67004F4B005041CD
:105ABE005353004641494C0049474E4F5245004E04
:105ACE00554C4C002E20002045787065637465643B
