S01400005841726475696E6F5F696E432E737265636D
S11300000C9434000C9451000C9451000C94510045
S11300100C9451000C9451000C9451000C94510018
S11300200C9451000C9451000C9451000C94510008
S11300300C9451000C9451000C9451000C945100F8
S11300400C9451000C9451000C9451000C945100E8
S11300500C9451000C9451000C9451000C945100D8
S11300600C9451000C94510011241FBECFEFD8E022
S1130070DEBFCDBF12E0A0E0B1E0E4E3F5E002C0F2
S113008005900D92A839B107D9F712E0A8E9B2E0BA
S113009001C01D92AA39B107E1F70E9453000C94E4
S11300A098020C9400000E945A000E94790080E09B
S11300B090E00895CF93DF9300D000D00F92CDB796
S11300C0DEB7198281E08A831B821C828D83CE0174
S11300D001960E94E40081E00E94360181E40E94BE
S11300E040010F900F900F900F900F90DF91CF91E0
S11300F00895FFCF813039F0813058F0823031F0EB
S113010080E090E0089586E290E0089589E290E02E
S1130110089583E290E0089585B7806185BF0895CE
S1130120CF93DF93D62FE82FF0E0EE0FFF1FE050C0
S1130130FF4FC18180810E947A00FC010097B1F0D9
S11301408D2F90E00C2E02C0880F991F0A94E2F7BD
S113015021E030E0A90102C0440F551FCA95E2F71F
S1130160EA01C0959181C9238C2B8183DF91CF91C2
S11301700895CF93DF93C62FE82FF0E0EE0FFF1F13
S1130180E050FF4FD18180810E947A00FC010097EA
S1130190C1F0C13059F481E090E002C0880F991F8A
S11301A0DA95E2F7D2818D2B82830BC081E090E057
S11301B002C0880F991FDA95E2F78095D2818D23CA
S11301C08283DF91CF910895FC018CB58F7D8CBD26
S11301D09CB580818295880F807E892B8CBD8CB5DF
S11301E08F7E8CBD9CB581818295807F892B8CBD4F
S11301F08CB5877F8CBD9CB58281880F880F880F52
S1130200892B8CBD8CB58B7F8CBD9CB58381880F6D
S1130210880F892B8CBD8CB58C7F8CBD8DB58E7F62
S11302208DBD6CB5848190E048E251E09C01220FC1
S1130230331F820F931FDA01A80FB91F11968C91F7
S11302401197862B12969C911297892B8CBD6DB5B4
S1130250848190E09C01220F331F820F931F480F6B
S1130260591FFA018081862B8DBD0895813021F4B8
S11302708CB580648CBD08958CB58F7B8CBD08953E
S11302808EBD0DB407FEFDCF0895DC0113968C914D
S11302901397982F94708370E2ECF0E030812C91E6
S11302A02295220F220F207C209523232083308146
S11302B02C912295220F220F207C232B2083308126
S11302C011962C9111972295207F2095232320832A
S11302D0308111962C9111972295207F232B208316
S11302E0308112962C911297220F220F220F209503
S11302F023232083308112962C91220F220F220F68
S1130300232B2083A1ECB0E03C91292F220F220F54
S1130310209523232C932C91990F990F922B9C9326
S11303202081982F990F9095922390839081880F24
S1130330892B808308952091C00021FD1DC0DC011C
S1130340CB01880F991FAA1FBB1F880F991FAA1FD3
S1130350BB1F9C01AD01220F331F441F551F220FE9
S1130360331F441F551F60E074E284EF90E00E9445
S113037076022150304018C0DC01CB01880F991F50
S1130380AA1FBB1F880F991FAA1FBB1F9C01AD0189
S1130390220F331F441F551F60E074E284EF90E086
S11303A00E947602215030402093C4001092C50070
S11303B00895813031F4E1ECF0E08081886080833D
S11303C00895E1ECF0E08081877F80830895813097
S11303D031F4E1ECF0E08081806180830895E1EC08
S11303E0F0E080818F7E80830895E0ECF0E09081DE
S11303F095FFFDCF8093C6000895CF93DF93EC0162
S11304008881882331F021960E94F50189918823FF
S1130410D9F7DF91CF910895E0ECF0E08081882353
S1130420ECF78091C60008950F931F93CF93C0E01B
S113043000919802109199020E940C02912FF801E8
S1130440EC0FF11D8083CF5F8A30B1F7802FCF91FD
S11304501F910F910895CF93DF93D82F8AE060E026
S11304600E94B900C8E08DE060E00E94B900DD237D
S11304702CF48BE061E00E94B90004C08BE060E0E2
S11304800E94B900DD0F8DE061E00E94B900C15007
S113049051F7DF91CF910895CF93DF93D82FC62FD3
S11304A08AE060E00E94B9008D2F0E942B028C2FFD
S11304B00E942B028AE061E00E94B900DF91CF9193
S11304C0089589E060E00E944C028AE063E00E94A3
S11304D04C028BE067E00E944C028CE061E00E94D9
S11304E04C028FE060E00E944C020895A1E21A2EB3
S11304F0AA1BBB1BFD010DC0AA1FBB1FEE1FFF1FC4
S1130500A217B307E407F50720F0A21BB30BE40B13
S1130510F50B661F771F881F991F1A9469F760955A
S11305207095809590959B01AC01BD01CF01089514
S1070530F894FFCF69
S11305340200020102020203020402050206020787
S11305440000000100020003000400050100010191
S1130554010201030104010500000000000100017F
S11305640000010101000001000101010001010179
S11305743C4242424242423C1018141010101010E3
S11305847E02027E4040407E3E02023E02023E0063
S113059408182848FE0808083C20203C04043C00B1
S11305A43C20203C24243C003E220408080808087B
S11305B4003E22223E22223E3E22223E0202023EED
S11305C40000000000000000000000000000000023
S11305D40000000000000000000000000000000013
S11305E40000000000000000000000000000000003
S11305F400000000000000000814223E22222222EF
S11306043C22223E22223C003C40404040403C00EC
S11306147C42424242427C007C40407C4040407CDC
S11306247C40407C404040403C4040404044443C4A
S11306344444447C444444447C1010101010107C02
S11306443C080808080848300024283020302824AE
S1130654404040404040407C81C3A59981818181D0
S1130664004262524A4642003C4242424242423CB6
S11306743C2222223C2020201C2222222226221D2B
S11306843C2222223C242221001E20203E02023C41
S1130694003E080808080808424242424242221C1A
S11306A4424242424242241800494949492A1C0010
S11306B4004122140814224141221408080808089D
S10B06C4007F02040810207FEE
S9030000FC
